{
  "contractName": "ElectricVehicle",
  "abi": [
    {
      "inputs": [
        {
          "internalType": "string",
          "name": "uri",
          "type": "string"
        }
      ],
      "stateMutability": "nonpayable",
      "type": "constructor"
    },
    {
      "anonymous": false,
      "inputs": [
        {
          "indexed": true,
          "internalType": "address",
          "name": "account",
          "type": "address"
        },
        {
          "indexed": true,
          "internalType": "address",
          "name": "operator",
          "type": "address"
        },
        {
          "indexed": false,
          "internalType": "bool",
          "name": "approved",
          "type": "bool"
        }
      ],
      "name": "ApprovalForAll",
      "type": "event"
    },
    {
      "anonymous": false,
      "inputs": [
        {
          "indexed": false,
          "internalType": "string",
          "name": "message",
          "type": "string"
        },
        {
          "indexed": false,
          "internalType": "address",
          "name": "value",
          "type": "address"
        }
      ],
      "name": "DebugEvent",
      "type": "event"
    },
    {
      "anonymous": false,
      "inputs": [
        {
          "indexed": true,
          "internalType": "address",
          "name": "previousOwner",
          "type": "address"
        },
        {
          "indexed": true,
          "internalType": "address",
          "name": "newOwner",
          "type": "address"
        }
      ],
      "name": "OwnershipTransferred",
      "type": "event"
    },
    {
      "anonymous": false,
      "inputs": [
        {
          "indexed": false,
          "internalType": "uint256",
          "name": "tokenId",
          "type": "uint256"
        },
        {
          "indexed": false,
          "internalType": "address",
          "name": "renter",
          "type": "address"
        }
      ],
      "name": "RentalEnded",
      "type": "event"
    },
    {
      "anonymous": false,
      "inputs": [
        {
          "indexed": true,
          "internalType": "address",
          "name": "operator",
          "type": "address"
        },
        {
          "indexed": true,
          "internalType": "address",
          "name": "from",
          "type": "address"
        },
        {
          "indexed": true,
          "internalType": "address",
          "name": "to",
          "type": "address"
        },
        {
          "indexed": false,
          "internalType": "uint256[]",
          "name": "ids",
          "type": "uint256[]"
        },
        {
          "indexed": false,
          "internalType": "uint256[]",
          "name": "values",
          "type": "uint256[]"
        }
      ],
      "name": "TransferBatch",
      "type": "event"
    },
    {
      "anonymous": false,
      "inputs": [
        {
          "indexed": true,
          "internalType": "address",
          "name": "operator",
          "type": "address"
        },
        {
          "indexed": true,
          "internalType": "address",
          "name": "from",
          "type": "address"
        },
        {
          "indexed": true,
          "internalType": "address",
          "name": "to",
          "type": "address"
        },
        {
          "indexed": false,
          "internalType": "uint256",
          "name": "id",
          "type": "uint256"
        },
        {
          "indexed": false,
          "internalType": "uint256",
          "name": "value",
          "type": "uint256"
        }
      ],
      "name": "TransferSingle",
      "type": "event"
    },
    {
      "anonymous": false,
      "inputs": [
        {
          "indexed": false,
          "internalType": "string",
          "name": "value",
          "type": "string"
        },
        {
          "indexed": true,
          "internalType": "uint256",
          "name": "id",
          "type": "uint256"
        }
      ],
      "name": "URI",
      "type": "event"
    },
    {
      "anonymous": false,
      "inputs": [
        {
          "indexed": false,
          "internalType": "uint256",
          "name": "tokenId",
          "type": "uint256"
        },
        {
          "indexed": false,
          "internalType": "address",
          "name": "caller",
          "type": "address"
        }
      ],
      "name": "VehicleMinted",
      "type": "event"
    },
    {
      "inputs": [
        {
          "internalType": "address",
          "name": "account",
          "type": "address"
        },
        {
          "internalType": "uint256",
          "name": "id",
          "type": "uint256"
        }
      ],
      "name": "balanceOf",
      "outputs": [
        {
          "internalType": "uint256",
          "name": "",
          "type": "uint256"
        }
      ],
      "stateMutability": "view",
      "type": "function",
      "constant": true
    },
    {
      "inputs": [
        {
          "internalType": "address[]",
          "name": "accounts",
          "type": "address[]"
        },
        {
          "internalType": "uint256[]",
          "name": "ids",
          "type": "uint256[]"
        }
      ],
      "name": "balanceOfBatch",
      "outputs": [
        {
          "internalType": "uint256[]",
          "name": "",
          "type": "uint256[]"
        }
      ],
      "stateMutability": "view",
      "type": "function",
      "constant": true
    },
    {
      "inputs": [
        {
          "internalType": "address",
          "name": "account",
          "type": "address"
        },
        {
          "internalType": "address",
          "name": "operator",
          "type": "address"
        }
      ],
      "name": "isApprovedForAll",
      "outputs": [
        {
          "internalType": "bool",
          "name": "",
          "type": "bool"
        }
      ],
      "stateMutability": "view",
      "type": "function",
      "constant": true
    },
    {
      "inputs": [],
      "name": "owner",
      "outputs": [
        {
          "internalType": "address",
          "name": "",
          "type": "address"
        }
      ],
      "stateMutability": "view",
      "type": "function",
      "constant": true
    },
    {
      "inputs": [],
      "name": "renounceOwnership",
      "outputs": [],
      "stateMutability": "nonpayable",
      "type": "function"
    },
    {
      "inputs": [
        {
          "internalType": "address",
          "name": "from",
          "type": "address"
        },
        {
          "internalType": "address",
          "name": "to",
          "type": "address"
        },
        {
          "internalType": "uint256[]",
          "name": "ids",
          "type": "uint256[]"
        },
        {
          "internalType": "uint256[]",
          "name": "amounts",
          "type": "uint256[]"
        },
        {
          "internalType": "bytes",
          "name": "data",
          "type": "bytes"
        }
      ],
      "name": "safeBatchTransferFrom",
      "outputs": [],
      "stateMutability": "nonpayable",
      "type": "function"
    },
    {
      "inputs": [
        {
          "internalType": "address",
          "name": "from",
          "type": "address"
        },
        {
          "internalType": "address",
          "name": "to",
          "type": "address"
        },
        {
          "internalType": "uint256",
          "name": "id",
          "type": "uint256"
        },
        {
          "internalType": "uint256",
          "name": "amount",
          "type": "uint256"
        },
        {
          "internalType": "bytes",
          "name": "data",
          "type": "bytes"
        }
      ],
      "name": "safeTransferFrom",
      "outputs": [],
      "stateMutability": "nonpayable",
      "type": "function"
    },
    {
      "inputs": [
        {
          "internalType": "address",
          "name": "operator",
          "type": "address"
        },
        {
          "internalType": "bool",
          "name": "approved",
          "type": "bool"
        }
      ],
      "name": "setApprovalForAll",
      "outputs": [],
      "stateMutability": "nonpayable",
      "type": "function"
    },
    {
      "inputs": [
        {
          "internalType": "bytes4",
          "name": "interfaceId",
          "type": "bytes4"
        }
      ],
      "name": "supportsInterface",
      "outputs": [
        {
          "internalType": "bool",
          "name": "",
          "type": "bool"
        }
      ],
      "stateMutability": "view",
      "type": "function",
      "constant": true
    },
    {
      "inputs": [
        {
          "internalType": "address",
          "name": "newOwner",
          "type": "address"
        }
      ],
      "name": "transferOwnership",
      "outputs": [],
      "stateMutability": "nonpayable",
      "type": "function"
    },
    {
      "inputs": [
        {
          "internalType": "uint256",
          "name": "",
          "type": "uint256"
        }
      ],
      "name": "uri",
      "outputs": [
        {
          "internalType": "string",
          "name": "",
          "type": "string"
        }
      ],
      "stateMutability": "view",
      "type": "function",
      "constant": true
    },
    {
      "inputs": [],
      "name": "dummyFunction",
      "outputs": [],
      "stateMutability": "nonpayable",
      "type": "function"
    },
    {
      "inputs": [],
      "name": "getContractOwner",
      "outputs": [
        {
          "internalType": "address",
          "name": "",
          "type": "address"
        },
        {
          "internalType": "address",
          "name": "",
          "type": "address"
        }
      ],
      "stateMutability": "view",
      "type": "function",
      "constant": true
    },
    {
      "inputs": [
        {
          "internalType": "address",
          "name": "to",
          "type": "address"
        },
        {
          "internalType": "string",
          "name": "make",
          "type": "string"
        },
        {
          "internalType": "string",
          "name": "model",
          "type": "string"
        },
        {
          "internalType": "uint256",
          "name": "price",
          "type": "uint256"
        }
      ],
      "name": "mintVehicle",
      "outputs": [],
      "stateMutability": "nonpayable",
      "type": "function"
    },
    {
      "inputs": [
        {
          "internalType": "uint256",
          "name": "tokenId",
          "type": "uint256"
        },
        {
          "internalType": "uint256",
          "name": "startTime",
          "type": "uint256"
        },
        {
          "internalType": "uint256",
          "name": "endTime",
          "type": "uint256"
        }
      ],
      "name": "rentVehicle",
      "outputs": [],
      "stateMutability": "nonpayable",
      "type": "function"
    },
    {
      "inputs": [
        {
          "internalType": "uint256",
          "name": "tokenId",
          "type": "uint256"
        }
      ],
      "name": "endRental",
      "outputs": [],
      "stateMutability": "nonpayable",
      "type": "function"
    },
    {
      "inputs": [
        {
          "internalType": "uint256",
          "name": "tokenId",
          "type": "uint256"
        }
      ],
      "name": "getVehicleData",
      "outputs": [
        {
          "internalType": "string",
          "name": "make",
          "type": "string"
        },
        {
          "internalType": "string",
          "name": "model",
          "type": "string"
        },
        {
          "internalType": "uint256",
          "name": "price",
          "type": "uint256"
        },
        {
          "internalType": "uint256",
          "name": "startTime",
          "type": "uint256"
        },
        {
          "internalType": "uint256",
          "name": "endTime",
          "type": "uint256"
        }
      ],
      "stateMutability": "view",
      "type": "function",
      "constant": true
    }
  ],
  "bytecode": "0x608060405260006005553480156200001657600080fd5b50604051620040503803806200405083398181016040528101906200003c9190620002ec565b806200004e816200007660201b60201c565b506200006f620000636200008b60201b60201c565b6200009360201b60201c565b506200066f565b806002908162000087919062000588565b5050565b600033905090565b6000600360009054906101000a900473ffffffffffffffffffffffffffffffffffffffff16905081600360006101000a81548173ffffffffffffffffffffffffffffffffffffffff021916908373ffffffffffffffffffffffffffffffffffffffff1602179055508173ffffffffffffffffffffffffffffffffffffffff168173ffffffffffffffffffffffffffffffffffffffff167f8be0079c531659141344cd1fd0a4f28419497f9722a3daafe3b4186f6b6457e060405160405180910390a35050565b6000604051905090565b600080fd5b600080fd5b600080fd5b600080fd5b6000601f19601f8301169050919050565b7f4e487b7100000000000000000000000000000000000000000000000000000000600052604160045260246000fd5b620001c28262000177565b810181811067ffffffffffffffff82111715620001e457620001e362000188565b5b80604052505050565b6000620001f962000159565b9050620002078282620001b7565b919050565b600067ffffffffffffffff8211156200022a576200022962000188565b5b620002358262000177565b9050602081019050919050565b60005b838110156200026257808201518184015260208101905062000245565b60008484015250505050565b6000620002856200027f846200020c565b620001ed565b905082815260208101848484011115620002a457620002a362000172565b5b620002b184828562000242565b509392505050565b600082601f830112620002d157620002d06200016d565b5b8151620002e38482602086016200026e565b91505092915050565b60006020828403121562000305576200030462000163565b5b600082015167ffffffffffffffff81111562000326576200032562000168565b5b6200033484828501620002b9565b91505092915050565b600081519050919050565b7f4e487b7100000000000000000000000000000000000000000000000000000000600052602260045260246000fd5b600060028204905060018216806200039057607f821691505b602082108103620003a657620003a562000348565b5b50919050565b60008190508160005260206000209050919050565b60006020601f8301049050919050565b600082821b905092915050565b600060088302620004107fffffffffffffffffffffffffffffffffffffffffffffffffffffffffffffffff82620003d1565b6200041c8683620003d1565b95508019841693508086168417925050509392505050565b6000819050919050565b6000819050919050565b600062000469620004636200045d8462000434565b6200043e565b62000434565b9050919050565b6000819050919050565b620004858362000448565b6200049d620004948262000470565b848454620003de565b825550505050565b600090565b620004b4620004a5565b620004c18184846200047a565b505050565b5b81811015620004e957620004dd600082620004aa565b600181019050620004c7565b5050565b601f82111562000538576200050281620003ac565b6200050d84620003c1565b810160208510156200051d578190505b620005356200052c85620003c1565b830182620004c6565b50505b505050565b600082821c905092915050565b60006200055d600019846008026200053d565b1980831691505092915050565b60006200057883836200054a565b9150826002028217905092915050565b62000593826200033d565b67ffffffffffffffff811115620005af57620005ae62000188565b5b620005bb825462000377565b620005c8828285620004ed565b600060209050601f831160018114620006005760008415620005eb578287015190505b620005f785826200056a565b86555062000667565b601f1984166200061086620003ac565b60005b828110156200063a5784890151825560018201915060208501945060208101905062000613565b868310156200065a578489015162000656601f8916826200054a565b8355505b6001600288020188555050505b505050505050565b6139d1806200067f6000396000f3fe608060405234801561001057600080fd5b506004361061010a5760003560e01c80637ec9d81f116100a2578063c8920eb111610071578063c8920eb114610290578063e0186e8f146102c4578063e985e9c5146102e0578063f242432a14610310578063f2fde38b1461032c5761010a565b80637ec9d81f146102305780638da5cb5b1461023a57806397491d6f14610258578063a22cb465146102745761010a565b8063390e8a77116100de578063390e8a77146101bb578063442890d5146101d75780634e1273f4146101f6578063715018a6146102265761010a565b8062fdd58e1461010f57806301ffc9a71461013f5780630e89341c1461016f5780632eb2c2d61461019f575b600080fd5b61012960048036038101906101249190611f6a565b610348565b6040516101369190611fb9565b60405180910390f35b6101596004803603810190610154919061202c565b610410565b6040516101669190612074565b60405180910390f35b6101896004803603810190610184919061208f565b6104f2565b604051610196919061214c565b60405180910390f35b6101b960048036038101906101b4919061236b565b610586565b005b6101d560048036038101906101d0919061243a565b610627565b005b6101df61078f565b6040516101ed92919061249c565b60405180910390f35b610210600480360381019061020b9190612588565b6107a3565b60405161021d91906126be565b60405180910390f35b61022e6108bc565b005b6102386108d0565b005b610242610909565b60405161024f91906126e0565b60405180910390f35b610272600480360381019061026d919061208f565b610933565b005b61028e60048036038101906102899190612727565b610b41565b005b6102aa60048036038101906102a5919061208f565b610b57565b6040516102bb959493929190612767565b60405180910390f35b6102de60048036038101906102d99190612869565b610cb8565b005b6102fa60048036038101906102f59190612908565b610e21565b6040516103079190612074565b60405180910390f35b61032a60048036038101906103259190612948565b610eb5565b005b610346600480360381019061034191906129df565b610f56565b005b60008073ffffffffffffffffffffffffffffffffffffffff168373ffffffffffffffffffffffffffffffffffffffff16036103b8576040517f08c379a00000000000000000000000000000000000000000000000000000000081526004016103af90612a7e565b60405180910390fd5b60008083815260200190815260200160002060008473ffffffffffffffffffffffffffffffffffffffff1673ffffffffffffffffffffffffffffffffffffffff16815260200190815260200160002054905092915050565b60007fd9b67a26000000000000000000000000000000000000000000000000000000007bffffffffffffffffffffffffffffffffffffffffffffffffffffffff1916827bffffffffffffffffffffffffffffffffffffffffffffffffffffffff191614806104db57507f0e89341c000000000000000000000000000000000000000000000000000000007bffffffffffffffffffffffffffffffffffffffffffffffffffffffff1916827bffffffffffffffffffffffffffffffffffffffffffffffffffffffff1916145b806104eb57506104ea82610fd9565b5b9050919050565b60606002805461050190612acd565b80601f016020809104026020016040519081016040528092919081815260200182805461052d90612acd565b801561057a5780601f1061054f5761010080835404028352916020019161057a565b820191906000526020600020905b81548152906001019060200180831161055d57829003601f168201915b50505050509050919050565b61058e611043565b73ffffffffffffffffffffffffffffffffffffffff168573ffffffffffffffffffffffffffffffffffffffff1614806105d457506105d3856105ce611043565b610e21565b5b610613576040517f08c379a000000000000000000000000000000000000000000000000000000000815260040161060a90612b70565b60405180910390fd5b610620858585858561104b565b5050505050565b60016106696004600086815260200190815260200160002060050160009054906101000a900473ffffffffffffffffffffffffffffffffffffffff1685610348565b146106a9576040517f08c379a00000000000000000000000000000000000000000000000000000000081526004016106a090612c02565b60405180910390fd5b81600460008581526020019081526020016000206004015410610701576040517f08c379a00000000000000000000000000000000000000000000000000000000081526004016106f890612c94565b60405180910390fd5b6107546004600085815260200190815260200160002060050160009054906101000a900473ffffffffffffffffffffffffffffffffffffffff163385600160405180602001604052806000815250610eb5565b816004600085815260200190815260200160002060030181905550806004600085815260200190815260200160002060040181905550505050565b60008061079a610909565b33915091509091565b606081518351146107e9576040517f08c379a00000000000000000000000000000000000000000000000000000000081526004016107e090612d26565b60405180910390fd5b6000835167ffffffffffffffff81111561080657610805612173565b5b6040519080825280602002602001820160405280156108345781602001602082028036833780820191505090505b50905060005b84518110156108b15761088185828151811061085957610858612d46565b5b602002602001015185838151811061087457610873612d46565b5b6020026020010151610348565b82828151811061089457610893612d46565b5b602002602001018181525050806108aa90612da4565b905061083a565b508091505092915050565b6108c461136c565b6108ce60006113ea565b565b7f5ee989b429a5ba59d47a51f696c162d0b9d8496e76e883e23a9070b29206a717336040516108ff9190612e38565b60405180910390a1565b6000600360009054906101000a900473ffffffffffffffffffffffffffffffffffffffff16905090565b8042600460008381526020019081526020016000206004015411158015610963575060016109613383610348565b145b15610a2d576109bb336004600084815260200190815260200160002060050160009054906101000a900473ffffffffffffffffffffffffffffffffffffffff1683600160405180602001604052806000815250610eb5565b60006004600083815260200190815260200160002060030181905550600060046000838152602001908152602001600020600401819055507ff9bbd47d9659083aa5b016ffd346aca413549aace523513f610200aeed1e1dd48133604051610a24929190612e66565b60405180910390a15b6001610a393384610348565b14610a79576040517f08c379a0000000000000000000000000000000000000000000000000000000008152600401610a7090612edb565b60405180910390fd5b610acc336004600085815260200190815260200160002060050160009054906101000a900473ffffffffffffffffffffffffffffffffffffffff1684600160405180602001604052806000815250610eb5565b60006004600084815260200190815260200160002060030181905550600060046000848152602001908152602001600020600401819055507ff9bbd47d9659083aa5b016ffd346aca413549aace523513f610200aeed1e1dd48233604051610b35929190612e66565b60405180910390a15050565b610b53610b4c611043565b83836114b0565b5050565b6060806000806000806004600088815260200190815260200160002090508060000181600101826002015483600301548460040154848054610b9890612acd565b80601f0160208091040260200160405190810160405280929190818152602001828054610bc490612acd565b8015610c115780601f10610be657610100808354040283529160200191610c11565b820191906000526020600020905b815481529060010190602001808311610bf457829003601f168201915b50505050509450838054610c2490612acd565b80601f0160208091040260200160405190810160405280929190818152602001828054610c5090612acd565b8015610c9d5780601f10610c7257610100808354040283529160200191610c9d565b820191906000526020600020905b815481529060010190602001808311610c8057829003601f168201915b50505050509350955095509550955095505091939590929450565b610cc061136c565b7f5ee989b429a5ba59d47a51f696c162d0b9d8496e76e883e23a9070b29206a71733604051610cef9190612f47565b60405180910390a1610d158460055460016040518060200160405280600081525061161c565b6040518060c0016040528084815260200183815260200182815260200160008152602001600081526020013373ffffffffffffffffffffffffffffffffffffffff168152506004600060055481526020019081526020016000206000820151816000019081610d849190613121565b506020820151816001019081610d9a9190613121565b5060408201518160020155606082015181600301556080820151816004015560a08201518160050160006101000a81548173ffffffffffffffffffffffffffffffffffffffff021916908373ffffffffffffffffffffffffffffffffffffffff16021790555090505060056000815480929190610e1690612da4565b919050555050505050565b6000600160008473ffffffffffffffffffffffffffffffffffffffff1673ffffffffffffffffffffffffffffffffffffffff16815260200190815260200160002060008373ffffffffffffffffffffffffffffffffffffffff1673ffffffffffffffffffffffffffffffffffffffff16815260200190815260200160002060009054906101000a900460ff16905092915050565b610ebd611043565b73ffffffffffffffffffffffffffffffffffffffff168573ffffffffffffffffffffffffffffffffffffffff161480610f035750610f0285610efd611043565b610e21565b5b610f42576040517f08c379a0000000000000000000000000000000000000000000000000000000008152600401610f3990612b70565b60405180910390fd5b610f4f85858585856117cc565b5050505050565b610f5e61136c565b600073ffffffffffffffffffffffffffffffffffffffff168173ffffffffffffffffffffffffffffffffffffffff1603610fcd576040517f08c379a0000000000000000000000000000000000000000000000000000000008152600401610fc490613265565b60405180910390fd5b610fd6816113ea565b50565b60007f01ffc9a7000000000000000000000000000000000000000000000000000000007bffffffffffffffffffffffffffffffffffffffffffffffffffffffff1916827bffffffffffffffffffffffffffffffffffffffffffffffffffffffff1916149050919050565b600033905090565b815183511461108f576040517f08c379a0000000000000000000000000000000000000000000000000000000008152600401611086906132f7565b60405180910390fd5b600073ffffffffffffffffffffffffffffffffffffffff168473ffffffffffffffffffffffffffffffffffffffff16036110fe576040517f08c379a00000000000000000000000000000000000000000000000000000000081526004016110f590613389565b60405180910390fd5b6000611108611043565b9050611118818787878787611a67565b60005b84518110156112c957600085828151811061113957611138612d46565b5b60200260200101519050600085838151811061115857611157612d46565b5b60200260200101519050600080600084815260200190815260200160002060008b73ffffffffffffffffffffffffffffffffffffffff1673ffffffffffffffffffffffffffffffffffffffff168152602001908152602001600020549050818110156111f9576040517f08c379a00000000000000000000000000000000000000000000000000000000081526004016111f09061341b565b60405180910390fd5b81810360008085815260200190815260200160002060008c73ffffffffffffffffffffffffffffffffffffffff1673ffffffffffffffffffffffffffffffffffffffff168152602001908152602001600020819055508160008085815260200190815260200160002060008b73ffffffffffffffffffffffffffffffffffffffff1673ffffffffffffffffffffffffffffffffffffffff16815260200190815260200160002060008282546112ae919061343b565b92505081905550505050806112c290612da4565b905061111b565b508473ffffffffffffffffffffffffffffffffffffffff168673ffffffffffffffffffffffffffffffffffffffff168273ffffffffffffffffffffffffffffffffffffffff167f4a39dc06d4c0dbc64b70af90fd698a233a518aa5d07e595d983b8c0526c8f7fb878760405161134092919061346f565b60405180910390a4611356818787878787611a6f565b611364818787878787611a77565b505050505050565b611374611043565b73ffffffffffffffffffffffffffffffffffffffff16611392610909565b73ffffffffffffffffffffffffffffffffffffffff16146113e8576040517f08c379a00000000000000000000000000000000000000000000000000000000081526004016113df906134f2565b60405180910390fd5b565b6000600360009054906101000a900473ffffffffffffffffffffffffffffffffffffffff16905081600360006101000a81548173ffffffffffffffffffffffffffffffffffffffff021916908373ffffffffffffffffffffffffffffffffffffffff1602179055508173ffffffffffffffffffffffffffffffffffffffff168173ffffffffffffffffffffffffffffffffffffffff167f8be0079c531659141344cd1fd0a4f28419497f9722a3daafe3b4186f6b6457e060405160405180910390a35050565b8173ffffffffffffffffffffffffffffffffffffffff168373ffffffffffffffffffffffffffffffffffffffff160361151e576040517f08c379a000000000000000000000000000000000000000000000000000000000815260040161151590613584565b60405180910390fd5b80600160008573ffffffffffffffffffffffffffffffffffffffff1673ffffffffffffffffffffffffffffffffffffffff16815260200190815260200160002060008473ffffffffffffffffffffffffffffffffffffffff1673ffffffffffffffffffffffffffffffffffffffff16815260200190815260200160002060006101000a81548160ff0219169083151502179055508173ffffffffffffffffffffffffffffffffffffffff168373ffffffffffffffffffffffffffffffffffffffff167f17307eab39ab6107e8899845ad3d59bd9653f200f220920489ca2b5937696c318360405161160f9190612074565b60405180910390a3505050565b600073ffffffffffffffffffffffffffffffffffffffff168473ffffffffffffffffffffffffffffffffffffffff160361168b576040517f08c379a000000000000000000000000000000000000000000000000000000000815260040161168290613616565b60405180910390fd5b6000611695611043565b905060006116a285611c4e565b905060006116af85611c4e565b90506116c083600089858589611a67565b8460008088815260200190815260200160002060008973ffffffffffffffffffffffffffffffffffffffff1673ffffffffffffffffffffffffffffffffffffffff168152602001908152602001600020600082825461171f919061343b565b925050819055508673ffffffffffffffffffffffffffffffffffffffff16600073ffffffffffffffffffffffffffffffffffffffff168473ffffffffffffffffffffffffffffffffffffffff167fc3d58168c5ae7397731d063d5bbf3d657854427343f4c083240f7aacaa2d0f62898960405161179d929190613636565b60405180910390a46117b483600089858589611a6f565b6117c383600089898989611cc8565b50505050505050565b600073ffffffffffffffffffffffffffffffffffffffff168473ffffffffffffffffffffffffffffffffffffffff160361183b576040517f08c379a000000000000000000000000000000000000000000000000000000000815260040161183290613389565b60405180910390fd5b6000611845611043565b9050600061185285611c4e565b9050600061185f85611c4e565b905061186f838989858589611a67565b600080600088815260200190815260200160002060008a73ffffffffffffffffffffffffffffffffffffffff1673ffffffffffffffffffffffffffffffffffffffff16815260200190815260200160002054905085811015611906576040517f08c379a00000000000000000000000000000000000000000000000000000000081526004016118fd9061341b565b60405180910390fd5b85810360008089815260200190815260200160002060008b73ffffffffffffffffffffffffffffffffffffffff1673ffffffffffffffffffffffffffffffffffffffff168152602001908152602001600020819055508560008089815260200190815260200160002060008a73ffffffffffffffffffffffffffffffffffffffff1673ffffffffffffffffffffffffffffffffffffffff16815260200190815260200160002060008282546119bb919061343b565b925050819055508773ffffffffffffffffffffffffffffffffffffffff168973ffffffffffffffffffffffffffffffffffffffff168573ffffffffffffffffffffffffffffffffffffffff167fc3d58168c5ae7397731d063d5bbf3d657854427343f4c083240f7aacaa2d0f628a8a604051611a38929190613636565b60405180910390a4611a4e848a8a86868a611a6f565b611a5c848a8a8a8a8a611cc8565b505050505050505050565b505050505050565b505050505050565b611a968473ffffffffffffffffffffffffffffffffffffffff16611e9f565b15611c46578373ffffffffffffffffffffffffffffffffffffffff1663bc197c8187878686866040518663ffffffff1660e01b8152600401611adc9594939291906136b4565b6020604051808303816000875af1925050508015611b1857506040513d601f19601f82011682018060405250810190611b159190613731565b60015b611bbd57611b2461376b565b806308c379a003611b805750611b3861378d565b80611b435750611b82565b806040517f08c379a0000000000000000000000000000000000000000000000000000000008152600401611b77919061214c565b60405180910390fd5b505b6040517f08c379a0000000000000000000000000000000000000000000000000000000008152600401611bb49061388f565b60405180910390fd5b63bc197c8160e01b7bffffffffffffffffffffffffffffffffffffffffffffffffffffffff1916817bffffffffffffffffffffffffffffffffffffffffffffffffffffffff191614611c44576040517f08c379a0000000000000000000000000000000000000000000000000000000008152600401611c3b90613921565b60405180910390fd5b505b505050505050565b60606000600167ffffffffffffffff811115611c6d57611c6c612173565b5b604051908082528060200260200182016040528015611c9b5781602001602082028036833780820191505090505b5090508281600081518110611cb357611cb2612d46565b5b60200260200101818152505080915050919050565b611ce78473ffffffffffffffffffffffffffffffffffffffff16611e9f565b15611e97578373ffffffffffffffffffffffffffffffffffffffff1663f23a6e6187878686866040518663ffffffff1660e01b8152600401611d2d959493929190613941565b6020604051808303816000875af1925050508015611d6957506040513d601f19601f82011682018060405250810190611d669190613731565b60015b611e0e57611d7561376b565b806308c379a003611dd15750611d8961378d565b80611d945750611dd3565b806040517f08c379a0000000000000000000000000000000000000000000000000000000008152600401611dc8919061214c565b60405180910390fd5b505b6040517f08c379a0000000000000000000000000000000000000000000000000000000008152600401611e059061388f565b60405180910390fd5b63f23a6e6160e01b7bffffffffffffffffffffffffffffffffffffffffffffffffffffffff1916817bffffffffffffffffffffffffffffffffffffffffffffffffffffffff191614611e95576040517f08c379a0000000000000000000000000000000000000000000000000000000008152600401611e8c90613921565b60405180910390fd5b505b505050505050565b6000808273ffffffffffffffffffffffffffffffffffffffff163b119050919050565b6000604051905090565b600080fd5b600080fd5b600073ffffffffffffffffffffffffffffffffffffffff82169050919050565b6000611f0182611ed6565b9050919050565b611f1181611ef6565b8114611f1c57600080fd5b50565b600081359050611f2e81611f08565b92915050565b6000819050919050565b611f4781611f34565b8114611f5257600080fd5b50565b600081359050611f6481611f3e565b92915050565b60008060408385031215611f8157611f80611ecc565b5b6000611f8f85828601611f1f565b9250506020611fa085828601611f55565b9150509250929050565b611fb381611f34565b82525050565b6000602082019050611fce6000830184611faa565b92915050565b60007fffffffff0000000000000000000000000000000000000000000000000000000082169050919050565b61200981611fd4565b811461201457600080fd5b50565b60008135905061202681612000565b92915050565b60006020828403121561204257612041611ecc565b5b600061205084828501612017565b91505092915050565b60008115159050919050565b61206e81612059565b82525050565b60006020820190506120896000830184612065565b92915050565b6000602082840312156120a5576120a4611ecc565b5b60006120b384828501611f55565b91505092915050565b600081519050919050565b600082825260208201905092915050565b60005b838110156120f65780820151818401526020810190506120db565b60008484015250505050565b6000601f19601f8301169050919050565b600061211e826120bc565b61212881856120c7565b93506121388185602086016120d8565b61214181612102565b840191505092915050565b600060208201905081810360008301526121668184612113565b905092915050565b600080fd5b7f4e487b7100000000000000000000000000000000000000000000000000000000600052604160045260246000fd5b6121ab82612102565b810181811067ffffffffffffffff821117156121ca576121c9612173565b5b80604052505050565b60006121dd611ec2565b90506121e982826121a2565b919050565b600067ffffffffffffffff82111561220957612208612173565b5b602082029050602081019050919050565b600080fd5b600061223261222d846121ee565b6121d3565b905080838252602082019050602084028301858111156122555761225461221a565b5b835b8181101561227e578061226a8882611f55565b845260208401935050602081019050612257565b5050509392505050565b600082601f83011261229d5761229c61216e565b5b81356122ad84826020860161221f565b91505092915050565b600080fd5b600067ffffffffffffffff8211156122d6576122d5612173565b5b6122df82612102565b9050602081019050919050565b82818337600083830152505050565b600061230e612309846122bb565b6121d3565b90508281526020810184848401111561232a576123296122b6565b5b6123358482856122ec565b509392505050565b600082601f8301126123525761235161216e565b5b81356123628482602086016122fb565b91505092915050565b600080600080600060a0868803121561238757612386611ecc565b5b600061239588828901611f1f565b95505060206123a688828901611f1f565b945050604086013567ffffffffffffffff8111156123c7576123c6611ed1565b5b6123d388828901612288565b935050606086013567ffffffffffffffff8111156123f4576123f3611ed1565b5b61240088828901612288565b925050608086013567ffffffffffffffff81111561242157612420611ed1565b5b61242d8882890161233d565b9150509295509295909350565b60008060006060848603121561245357612452611ecc565b5b600061246186828701611f55565b935050602061247286828701611f55565b925050604061248386828701611f55565b9150509250925092565b61249681611ef6565b82525050565b60006040820190506124b1600083018561248d565b6124be602083018461248d565b9392505050565b600067ffffffffffffffff8211156124e0576124df612173565b5b602082029050602081019050919050565b60006125046124ff846124c5565b6121d3565b905080838252602082019050602084028301858111156125275761252661221a565b5b835b81811015612550578061253c8882611f1f565b845260208401935050602081019050612529565b5050509392505050565b600082601f83011261256f5761256e61216e565b5b813561257f8482602086016124f1565b91505092915050565b6000806040838503121561259f5761259e611ecc565b5b600083013567ffffffffffffffff8111156125bd576125bc611ed1565b5b6125c98582860161255a565b925050602083013567ffffffffffffffff8111156125ea576125e9611ed1565b5b6125f685828601612288565b9150509250929050565b600081519050919050565b600082825260208201905092915050565b6000819050602082019050919050565b61263581611f34565b82525050565b6000612647838361262c565b60208301905092915050565b6000602082019050919050565b600061266b82612600565b612675818561260b565b93506126808361261c565b8060005b838110156126b1578151612698888261263b565b97506126a383612653565b925050600181019050612684565b5085935050505092915050565b600060208201905081810360008301526126d88184612660565b905092915050565b60006020820190506126f5600083018461248d565b92915050565b61270481612059565b811461270f57600080fd5b50565b600081359050612721816126fb565b92915050565b6000806040838503121561273e5761273d611ecc565b5b600061274c85828601611f1f565b925050602061275d85828601612712565b9150509250929050565b600060a08201905081810360008301526127818188612113565b905081810360208301526127958187612113565b90506127a46040830186611faa565b6127b16060830185611faa565b6127be6080830184611faa565b9695505050505050565b600067ffffffffffffffff8211156127e3576127e2612173565b5b6127ec82612102565b9050602081019050919050565b600061280c612807846127c8565b6121d3565b905082815260208101848484011115612828576128276122b6565b5b6128338482856122ec565b509392505050565b600082601f8301126128505761284f61216e565b5b81356128608482602086016127f9565b91505092915050565b6000806000806080858703121561288357612882611ecc565b5b600061289187828801611f1f565b945050602085013567ffffffffffffffff8111156128b2576128b1611ed1565b5b6128be8782880161283b565b935050604085013567ffffffffffffffff8111156128df576128de611ed1565b5b6128eb8782880161283b565b92505060606128fc87828801611f55565b91505092959194509250565b6000806040838503121561291f5761291e611ecc565b5b600061292d85828601611f1f565b925050602061293e85828601611f1f565b9150509250929050565b600080600080600060a0868803121561296457612963611ecc565b5b600061297288828901611f1f565b955050602061298388828901611f1f565b945050604061299488828901611f55565b93505060606129a588828901611f55565b925050608086013567ffffffffffffffff8111156129c6576129c5611ed1565b5b6129d28882890161233d565b9150509295509295909350565b6000602082840312156129f5576129f4611ecc565b5b6000612a0384828501611f1f565b91505092915050565b7f455243313135353a2061646472657373207a65726f206973206e6f742061207660008201527f616c6964206f776e657200000000000000000000000000000000000000000000602082015250565b6000612a68602a836120c7565b9150612a7382612a0c565b604082019050919050565b60006020820190508181036000830152612a9781612a5b565b9050919050565b7f4e487b7100000000000000000000000000000000000000000000000000000000600052602260045260246000fd5b60006002820490506001821680612ae557607f821691505b602082108103612af857612af7612a9e565b5b50919050565b7f455243313135353a2063616c6c6572206973206e6f7420746f6b656e206f776e60008201527f6572206f7220617070726f766564000000000000000000000000000000000000602082015250565b6000612b5a602e836120c7565b9150612b6582612afe565b604082019050919050565b60006020820190508181036000830152612b8981612b4d565b9050919050565b7f5468652061707020646f6573206e6f74206f776e20746869732076656869636c60008201527f6500000000000000000000000000000000000000000000000000000000000000602082015250565b6000612bec6021836120c7565b9150612bf782612b90565b604082019050919050565b60006020820190508181036000830152612c1b81612bdf565b9050919050565b7f56656869636c6520697320616c72656164792072656e74656420647572696e6760008201527f20746869732074696d6500000000000000000000000000000000000000000000602082015250565b6000612c7e602a836120c7565b9150612c8982612c22565b604082019050919050565b60006020820190508181036000830152612cad81612c71565b9050919050565b7f455243313135353a206163636f756e747320616e6420696473206c656e67746860008201527f206d69736d617463680000000000000000000000000000000000000000000000602082015250565b6000612d106029836120c7565b9150612d1b82612cb4565b604082019050919050565b60006020820190508181036000830152612d3f81612d03565b9050919050565b7f4e487b7100000000000000000000000000000000000000000000000000000000600052603260045260246000fd5b7f4e487b7100000000000000000000000000000000000000000000000000000000600052601160045260246000fd5b6000612daf82611f34565b91507fffffffffffffffffffffffffffffffffffffffffffffffffffffffffffffffff8203612de157612de0612d75565b5b600182019050919050565b7f44756d6d792066756e6374696f6e2063616c6c65640000000000000000000000600082015250565b6000612e226015836120c7565b9150612e2d82612dec565b602082019050919050565b60006040820190508181036000830152612e5181612e15565b9050612e60602083018461248d565b92915050565b6000604082019050612e7b6000830185611faa565b612e88602083018461248d565b9392505050565b7f596f7520646f206e6f74206f776e20746869732076656869636c650000000000600082015250565b6000612ec5601b836120c7565b9150612ed082612e8f565b602082019050919050565b60006020820190508181036000830152612ef481612eb8565b9050919050565b7f4d696e74696e672076656869636c650000000000000000000000000000000000600082015250565b6000612f31600f836120c7565b9150612f3c82612efb565b602082019050919050565b60006040820190508181036000830152612f6081612f24565b9050612f6f602083018461248d565b92915050565b60008190508160005260206000209050919050565b60006020601f8301049050919050565b600082821b905092915050565b600060088302612fd77fffffffffffffffffffffffffffffffffffffffffffffffffffffffffffffffff82612f9a565b612fe18683612f9a565b95508019841693508086168417925050509392505050565b6000819050919050565b600061301e61301961301484611f34565b612ff9565b611f34565b9050919050565b6000819050919050565b61303883613003565b61304c61304482613025565b848454612fa7565b825550505050565b600090565b613061613054565b61306c81848461302f565b505050565b5b8181101561309057613085600082613059565b600181019050613072565b5050565b601f8211156130d5576130a681612f75565b6130af84612f8a565b810160208510156130be578190505b6130d26130ca85612f8a565b830182613071565b50505b505050565b600082821c905092915050565b60006130f8600019846008026130da565b1980831691505092915050565b600061311183836130e7565b9150826002028217905092915050565b61312a826120bc565b67ffffffffffffffff81111561314357613142612173565b5b61314d8254612acd565b613158828285613094565b600060209050601f83116001811461318b5760008415613179578287015190505b6131838582613105565b8655506131eb565b601f19841661319986612f75565b60005b828110156131c15784890151825560018201915060208501945060208101905061319c565b868310156131de57848901516131da601f8916826130e7565b8355505b6001600288020188555050505b505050505050565b7f4f776e61626c653a206e6577206f776e657220697320746865207a65726f206160008201527f6464726573730000000000000000000000000000000000000000000000000000602082015250565b600061324f6026836120c7565b915061325a826131f3565b604082019050919050565b6000602082019050818103600083015261327e81613242565b9050919050565b7f455243313135353a2069647320616e6420616d6f756e7473206c656e6774682060008201527f6d69736d61746368000000000000000000000000000000000000000000000000602082015250565b60006132e16028836120c7565b91506132ec82613285565b604082019050919050565b60006020820190508181036000830152613310816132d4565b9050919050565b7f455243313135353a207472616e7366657220746f20746865207a65726f20616460008201527f6472657373000000000000000000000000000000000000000000000000000000602082015250565b60006133736025836120c7565b915061337e82613317565b604082019050919050565b600060208201905081810360008301526133a281613366565b9050919050565b7f455243313135353a20696e73756666696369656e742062616c616e636520666f60008201527f72207472616e7366657200000000000000000000000000000000000000000000602082015250565b6000613405602a836120c7565b9150613410826133a9565b604082019050919050565b60006020820190508181036000830152613434816133f8565b9050919050565b600061344682611f34565b915061345183611f34565b925082820190508082111561346957613468612d75565b5b92915050565b600060408201905081810360008301526134898185612660565b9050818103602083015261349d8184612660565b90509392505050565b7f4f776e61626c653a2063616c6c6572206973206e6f7420746865206f776e6572600082015250565b60006134dc6020836120c7565b91506134e7826134a6565b602082019050919050565b6000602082019050818103600083015261350b816134cf565b9050919050565b7f455243313135353a2073657474696e6720617070726f76616c2073746174757360008201527f20666f722073656c660000000000000000000000000000000000000000000000602082015250565b600061356e6029836120c7565b915061357982613512565b604082019050919050565b6000602082019050818103600083015261359d81613561565b9050919050565b7f455243313135353a206d696e7420746f20746865207a65726f2061646472657360008201527f7300000000000000000000000000000000000000000000000000000000000000602082015250565b60006136006021836120c7565b915061360b826135a4565b604082019050919050565b6000602082019050818103600083015261362f816135f3565b9050919050565b600060408201905061364b6000830185611faa565b6136586020830184611faa565b9392505050565b600081519050919050565b600082825260208201905092915050565b60006136868261365f565b613690818561366a565b93506136a08185602086016120d8565b6136a981612102565b840191505092915050565b600060a0820190506136c9600083018861248d565b6136d6602083018761248d565b81810360408301526136e88186612660565b905081810360608301526136fc8185612660565b90508181036080830152613710818461367b565b90509695505050505050565b60008151905061372b81612000565b92915050565b60006020828403121561374757613746611ecc565b5b60006137558482850161371c565b91505092915050565b60008160e01c9050919050565b600060033d111561378a5760046000803e61378760005161375e565b90505b90565b600060443d1061381a5761379f611ec2565b60043d036004823e80513d602482011167ffffffffffffffff821117156137c757505061381a565b808201805167ffffffffffffffff8111156137e5575050505061381a565b80602083010160043d03850181111561380257505050505061381a565b613811826020018501866121a2565b82955050505050505b90565b7f455243313135353a207472616e7366657220746f206e6f6e2d4552433131353560008201527f526563656976657220696d706c656d656e746572000000000000000000000000602082015250565b60006138796034836120c7565b91506138848261381d565b604082019050919050565b600060208201905081810360008301526138a88161386c565b9050919050565b7f455243313135353a204552433131353552656365697665722072656a6563746560008201527f6420746f6b656e73000000000000000000000000000000000000000000000000602082015250565b600061390b6028836120c7565b9150613916826138af565b604082019050919050565b6000602082019050818103600083015261393a816138fe565b9050919050565b600060a082019050613956600083018861248d565b613963602083018761248d565b6139706040830186611faa565b61397d6060830185611faa565b818103608083015261398f818461367b565b9050969550505050505056fea2646970667358221220663a1b1bbd1a890eb9dd61390eb36e022356149106fcf933da8e2968322ffba464736f6c63430008130033",
  "immutableReferences": {},
  "source": "pragma solidity ^0.8.1;\n\nimport \"@openzeppelin/contracts/token/ERC1155/ERC1155.sol\";\nimport \"@openzeppelin/contracts/access/Ownable.sol\";\n\ncontract ElectricVehicle is ERC1155, Ownable {\n    // Add a constructor with a URI parameter\n    constructor(string memory uri) ERC1155(uri) {}\n\n\n    struct Vehicle {\n        string make;\n        string model;\n        uint256 price;\n        uint256 startTime;\n        uint256 endTime;\n        address appAddress;\n    }\n\n    mapping(uint256 => Vehicle) private _vehicleData;\n\n    uint256 private _currentTokenId = 0;\n\n    function dummyFunction() public {\n        emit DebugEvent(\"Dummy function called\", msg.sender);\n    }\n\n\n    function getContractOwner() public view returns (address, address) {\n        return (owner(), msg.sender);\n    }\n\n    event DebugEvent(string message, address value);\n    event VehicleMinted(uint256 tokenId, address caller);\n    function mintVehicle(\n        address to,\n        string memory make,\n        string memory model,\n        uint256 price\n    ) public onlyOwner {\n        emit DebugEvent(\"Minting vehicle\", msg.sender);\n        _mint(to, _currentTokenId, 1, \"\");\n        _vehicleData[_currentTokenId] = Vehicle(make, model, price, 0, 0, msg.sender);\n        _currentTokenId++;\n    }\n\n\n\n    function rentVehicle(uint256 tokenId, uint256 startTime, uint256 endTime) public {\n        require(balanceOf(_vehicleData[tokenId].appAddress, tokenId) == 1, \"The app does not own this vehicle\");\n        require(_vehicleData[tokenId].endTime < startTime, \"Vehicle is already rented during this time\");\n\n        // Transfer ownership to the renter\n        safeTransferFrom(_vehicleData[tokenId].appAddress, msg.sender, tokenId, 1, \"\");\n\n        _vehicleData[tokenId].startTime = startTime;\n        _vehicleData[tokenId].endTime = endTime;\n    }\n\n    event RentalEnded(uint256 tokenId, address renter);\n\n    function endRental(uint256 tokenId) public checkRentalStatus(tokenId) {\n        require(balanceOf(msg.sender, tokenId) == 1, \"You do not own this vehicle\");\n\n        // Transfer ownership back to the app\n        safeTransferFrom(msg.sender, _vehicleData[tokenId].appAddress, tokenId, 1, \"\");\n\n        // Reset rental start and end times\n        _vehicleData[tokenId].startTime = 0;\n        _vehicleData[tokenId].endTime = 0;\n\n        emit RentalEnded(tokenId, msg.sender);\n    }\n\n    modifier checkRentalStatus(uint256 tokenId) {\n        if (_vehicleData[tokenId].endTime <= block.timestamp && balanceOf(msg.sender, tokenId) == 1) {\n            // Transfer ownership back to the app\n            safeTransferFrom(msg.sender, _vehicleData[tokenId].appAddress, tokenId, 1, \"\");\n\n            // Reset rental start and end times\n            _vehicleData[tokenId].startTime = 0;\n            _vehicleData[tokenId].endTime = 0;\n\n            emit RentalEnded(tokenId, msg.sender);\n        }\n        _;\n    }\n\n    function getVehicleData(uint256 tokenId)\n    public\n    view\n    returns (\n        string memory make,\n        string memory model,\n        uint256 price,\n        uint256 startTime,\n        uint256 endTime\n    )\n    {\n        Vehicle storage vehicle = _vehicleData[tokenId];\n        return (vehicle.make, vehicle.model, vehicle.price, vehicle.startTime, vehicle.endTime);\n    }\n}\n",
  "sourcePath": "/Users/acsatlos/WebstormProjects/ElectricVehicleSharing/smart-contract/contracts/ElectricVehicle.sol",
  "compiler": {
    "name": "solc",
    "version": "0.8.19+commit.7dd6d404.Emscripten.clang"
  },
  "schemaVersion": "3.4.13",
  "updatedAt": "2023-05-12T17:03:08.842Z",
  "networkType": "ethereum",
  "devdoc": {
    "events": {
      "ApprovalForAll(address,address,bool)": {
        "details": "Emitted when `account` grants or revokes permission to `operator` to transfer their tokens, according to `approved`."
      },
      "TransferBatch(address,address,address,uint256[],uint256[])": {
        "details": "Equivalent to multiple {TransferSingle} events, where `operator`, `from` and `to` are the same for all transfers."
      },
      "TransferSingle(address,address,address,uint256,uint256)": {
        "details": "Emitted when `value` tokens of token type `id` are transferred from `from` to `to` by `operator`."
      },
      "URI(string,uint256)": {
        "details": "Emitted when the URI for token type `id` changes to `value`, if it is a non-programmatic URI. If an {URI} event was emitted for `id`, the standard https://eips.ethereum.org/EIPS/eip-1155#metadata-extensions[guarantees] that `value` will equal the value returned by {IERC1155MetadataURI-uri}."
      }
    },
    "kind": "dev",
    "methods": {
      "balanceOf(address,uint256)": {
        "details": "See {IERC1155-balanceOf}. Requirements: - `account` cannot be the zero address."
      },
      "balanceOfBatch(address[],uint256[])": {
        "details": "See {IERC1155-balanceOfBatch}. Requirements: - `accounts` and `ids` must have the same length."
      },
      "isApprovedForAll(address,address)": {
        "details": "See {IERC1155-isApprovedForAll}."
      },
      "owner()": {
        "details": "Returns the address of the current owner."
      },
      "renounceOwnership()": {
        "details": "Leaves the contract without owner. It will not be possible to call `onlyOwner` functions anymore. Can only be called by the current owner. NOTE: Renouncing ownership will leave the contract without an owner, thereby removing any functionality that is only available to the owner."
      },
      "safeBatchTransferFrom(address,address,uint256[],uint256[],bytes)": {
        "details": "See {IERC1155-safeBatchTransferFrom}."
      },
      "safeTransferFrom(address,address,uint256,uint256,bytes)": {
        "details": "See {IERC1155-safeTransferFrom}."
      },
      "setApprovalForAll(address,bool)": {
        "details": "See {IERC1155-setApprovalForAll}."
      },
      "supportsInterface(bytes4)": {
        "details": "See {IERC165-supportsInterface}."
      },
      "transferOwnership(address)": {
        "details": "Transfers ownership of the contract to a new account (`newOwner`). Can only be called by the current owner."
      },
      "uri(uint256)": {
        "details": "See {IERC1155MetadataURI-uri}. This implementation returns the same URI for *all* token types. It relies on the token type ID substitution mechanism https://eips.ethereum.org/EIPS/eip-1155#metadata[defined in the EIP]. Clients calling this function must replace the `\\{id\\}` substring with the actual token type ID."
      }
    },
    "version": 1
  },
  "userdoc": {
    "kind": "user",
    "methods": {},
    "version": 1
  }
}