{
  "contractName": "ElectricVehicle",
  "abi": [
    {
      "inputs": [
        {
          "internalType": "string",
          "name": "uri",
          "type": "string"
        }
      ],
      "stateMutability": "nonpayable",
      "type": "constructor"
    },
    {
      "anonymous": false,
      "inputs": [
        {
          "indexed": true,
          "internalType": "address",
          "name": "account",
          "type": "address"
        },
        {
          "indexed": true,
          "internalType": "address",
          "name": "operator",
          "type": "address"
        },
        {
          "indexed": false,
          "internalType": "bool",
          "name": "approved",
          "type": "bool"
        }
      ],
      "name": "ApprovalForAll",
      "type": "event"
    },
    {
      "anonymous": false,
      "inputs": [
        {
          "indexed": false,
          "internalType": "string",
          "name": "message",
          "type": "string"
        },
        {
          "indexed": false,
          "internalType": "address",
          "name": "value",
          "type": "address"
        }
      ],
      "name": "DebugEvent",
      "type": "event"
    },
    {
      "anonymous": false,
      "inputs": [
        {
          "indexed": true,
          "internalType": "address",
          "name": "owner",
          "type": "address"
        },
        {
          "indexed": true,
          "internalType": "address",
          "name": "sender",
          "type": "address"
        }
      ],
      "name": "OwnerAndSender",
      "type": "event"
    },
    {
      "anonymous": false,
      "inputs": [
        {
          "indexed": true,
          "internalType": "address",
          "name": "previousOwner",
          "type": "address"
        },
        {
          "indexed": true,
          "internalType": "address",
          "name": "newOwner",
          "type": "address"
        }
      ],
      "name": "OwnershipTransferred",
      "type": "event"
    },
    {
      "anonymous": false,
      "inputs": [
        {
          "indexed": false,
          "internalType": "uint256",
          "name": "tokenId",
          "type": "uint256"
        },
        {
          "indexed": false,
          "internalType": "address",
          "name": "renter",
          "type": "address"
        }
      ],
      "name": "RentalEnded",
      "type": "event"
    },
    {
      "anonymous": false,
      "inputs": [
        {
          "indexed": true,
          "internalType": "address",
          "name": "operator",
          "type": "address"
        },
        {
          "indexed": true,
          "internalType": "address",
          "name": "from",
          "type": "address"
        },
        {
          "indexed": true,
          "internalType": "address",
          "name": "to",
          "type": "address"
        },
        {
          "indexed": false,
          "internalType": "uint256[]",
          "name": "ids",
          "type": "uint256[]"
        },
        {
          "indexed": false,
          "internalType": "uint256[]",
          "name": "values",
          "type": "uint256[]"
        }
      ],
      "name": "TransferBatch",
      "type": "event"
    },
    {
      "anonymous": false,
      "inputs": [
        {
          "indexed": true,
          "internalType": "address",
          "name": "operator",
          "type": "address"
        },
        {
          "indexed": true,
          "internalType": "address",
          "name": "from",
          "type": "address"
        },
        {
          "indexed": true,
          "internalType": "address",
          "name": "to",
          "type": "address"
        },
        {
          "indexed": false,
          "internalType": "uint256",
          "name": "id",
          "type": "uint256"
        },
        {
          "indexed": false,
          "internalType": "uint256",
          "name": "value",
          "type": "uint256"
        }
      ],
      "name": "TransferSingle",
      "type": "event"
    },
    {
      "anonymous": false,
      "inputs": [
        {
          "indexed": false,
          "internalType": "string",
          "name": "value",
          "type": "string"
        },
        {
          "indexed": true,
          "internalType": "uint256",
          "name": "id",
          "type": "uint256"
        }
      ],
      "name": "URI",
      "type": "event"
    },
    {
      "inputs": [
        {
          "internalType": "address",
          "name": "account",
          "type": "address"
        },
        {
          "internalType": "uint256",
          "name": "id",
          "type": "uint256"
        }
      ],
      "name": "balanceOf",
      "outputs": [
        {
          "internalType": "uint256",
          "name": "",
          "type": "uint256"
        }
      ],
      "stateMutability": "view",
      "type": "function",
      "constant": true
    },
    {
      "inputs": [
        {
          "internalType": "address[]",
          "name": "accounts",
          "type": "address[]"
        },
        {
          "internalType": "uint256[]",
          "name": "ids",
          "type": "uint256[]"
        }
      ],
      "name": "balanceOfBatch",
      "outputs": [
        {
          "internalType": "uint256[]",
          "name": "",
          "type": "uint256[]"
        }
      ],
      "stateMutability": "view",
      "type": "function",
      "constant": true
    },
    {
      "inputs": [
        {
          "internalType": "address",
          "name": "account",
          "type": "address"
        },
        {
          "internalType": "address",
          "name": "operator",
          "type": "address"
        }
      ],
      "name": "isApprovedForAll",
      "outputs": [
        {
          "internalType": "bool",
          "name": "",
          "type": "bool"
        }
      ],
      "stateMutability": "view",
      "type": "function",
      "constant": true
    },
    {
      "inputs": [],
      "name": "owner",
      "outputs": [
        {
          "internalType": "address",
          "name": "",
          "type": "address"
        }
      ],
      "stateMutability": "view",
      "type": "function",
      "constant": true
    },
    {
      "inputs": [],
      "name": "renounceOwnership",
      "outputs": [],
      "stateMutability": "nonpayable",
      "type": "function"
    },
    {
      "inputs": [
        {
          "internalType": "address",
          "name": "from",
          "type": "address"
        },
        {
          "internalType": "address",
          "name": "to",
          "type": "address"
        },
        {
          "internalType": "uint256[]",
          "name": "ids",
          "type": "uint256[]"
        },
        {
          "internalType": "uint256[]",
          "name": "amounts",
          "type": "uint256[]"
        },
        {
          "internalType": "bytes",
          "name": "data",
          "type": "bytes"
        }
      ],
      "name": "safeBatchTransferFrom",
      "outputs": [],
      "stateMutability": "nonpayable",
      "type": "function"
    },
    {
      "inputs": [
        {
          "internalType": "address",
          "name": "from",
          "type": "address"
        },
        {
          "internalType": "address",
          "name": "to",
          "type": "address"
        },
        {
          "internalType": "uint256",
          "name": "id",
          "type": "uint256"
        },
        {
          "internalType": "uint256",
          "name": "amount",
          "type": "uint256"
        },
        {
          "internalType": "bytes",
          "name": "data",
          "type": "bytes"
        }
      ],
      "name": "safeTransferFrom",
      "outputs": [],
      "stateMutability": "nonpayable",
      "type": "function"
    },
    {
      "inputs": [
        {
          "internalType": "address",
          "name": "operator",
          "type": "address"
        },
        {
          "internalType": "bool",
          "name": "approved",
          "type": "bool"
        }
      ],
      "name": "setApprovalForAll",
      "outputs": [],
      "stateMutability": "nonpayable",
      "type": "function"
    },
    {
      "inputs": [
        {
          "internalType": "bytes4",
          "name": "interfaceId",
          "type": "bytes4"
        }
      ],
      "name": "supportsInterface",
      "outputs": [
        {
          "internalType": "bool",
          "name": "",
          "type": "bool"
        }
      ],
      "stateMutability": "view",
      "type": "function",
      "constant": true
    },
    {
      "inputs": [
        {
          "internalType": "address",
          "name": "newOwner",
          "type": "address"
        }
      ],
      "name": "transferOwnership",
      "outputs": [],
      "stateMutability": "nonpayable",
      "type": "function"
    },
    {
      "inputs": [
        {
          "internalType": "uint256",
          "name": "",
          "type": "uint256"
        }
      ],
      "name": "uri",
      "outputs": [
        {
          "internalType": "string",
          "name": "",
          "type": "string"
        }
      ],
      "stateMutability": "view",
      "type": "function",
      "constant": true
    },
    {
      "inputs": [],
      "name": "dummyFunction",
      "outputs": [],
      "stateMutability": "nonpayable",
      "type": "function"
    },
    {
      "inputs": [],
      "name": "emitOwnerAndSender",
      "outputs": [],
      "stateMutability": "nonpayable",
      "type": "function"
    },
    {
      "inputs": [],
      "name": "ownerAddress",
      "outputs": [
        {
          "internalType": "address",
          "name": "",
          "type": "address"
        },
        {
          "internalType": "address",
          "name": "",
          "type": "address"
        }
      ],
      "stateMutability": "view",
      "type": "function",
      "constant": true
    },
    {
      "inputs": [
        {
          "internalType": "address",
          "name": "to",
          "type": "address"
        },
        {
          "internalType": "string",
          "name": "make",
          "type": "string"
        },
        {
          "internalType": "string",
          "name": "model",
          "type": "string"
        },
        {
          "internalType": "uint256",
          "name": "price",
          "type": "uint256"
        }
      ],
      "name": "mintVehicle",
      "outputs": [],
      "stateMutability": "nonpayable",
      "type": "function"
    },
    {
      "inputs": [
        {
          "internalType": "uint256",
          "name": "tokenId",
          "type": "uint256"
        },
        {
          "internalType": "uint256",
          "name": "startTime",
          "type": "uint256"
        },
        {
          "internalType": "uint256",
          "name": "endTime",
          "type": "uint256"
        }
      ],
      "name": "rentVehicle",
      "outputs": [],
      "stateMutability": "nonpayable",
      "type": "function"
    },
    {
      "inputs": [
        {
          "internalType": "uint256",
          "name": "tokenId",
          "type": "uint256"
        }
      ],
      "name": "endRental",
      "outputs": [],
      "stateMutability": "nonpayable",
      "type": "function"
    },
    {
      "inputs": [
        {
          "internalType": "uint256",
          "name": "tokenId",
          "type": "uint256"
        }
      ],
      "name": "getVehicleData",
      "outputs": [
        {
          "internalType": "string",
          "name": "make",
          "type": "string"
        },
        {
          "internalType": "string",
          "name": "model",
          "type": "string"
        },
        {
          "internalType": "uint256",
          "name": "price",
          "type": "uint256"
        }
      ],
      "stateMutability": "view",
      "type": "function",
      "constant": true
    },
    {
      "inputs": [],
      "name": "totalSupply",
      "outputs": [
        {
          "internalType": "uint256",
          "name": "",
          "type": "uint256"
        }
      ],
      "stateMutability": "view",
      "type": "function",
      "constant": true
    }
  ],
  "bytecode": "0x608060405260006005553480156200001657600080fd5b50604051620040203803806200402083398181016040528101906200003c9190620002ec565b806200004e816200007660201b60201c565b506200006f620000636200008b60201b60201c565b6200009360201b60201c565b506200066f565b806002908162000087919062000588565b5050565b600033905090565b6000600360009054906101000a900473ffffffffffffffffffffffffffffffffffffffff16905081600360006101000a81548173ffffffffffffffffffffffffffffffffffffffff021916908373ffffffffffffffffffffffffffffffffffffffff1602179055508173ffffffffffffffffffffffffffffffffffffffff168173ffffffffffffffffffffffffffffffffffffffff167f8be0079c531659141344cd1fd0a4f28419497f9722a3daafe3b4186f6b6457e060405160405180910390a35050565b6000604051905090565b600080fd5b600080fd5b600080fd5b600080fd5b6000601f19601f8301169050919050565b7f4e487b7100000000000000000000000000000000000000000000000000000000600052604160045260246000fd5b620001c28262000177565b810181811067ffffffffffffffff82111715620001e457620001e362000188565b5b80604052505050565b6000620001f962000159565b9050620002078282620001b7565b919050565b600067ffffffffffffffff8211156200022a576200022962000188565b5b620002358262000177565b9050602081019050919050565b60005b838110156200026257808201518184015260208101905062000245565b60008484015250505050565b6000620002856200027f846200020c565b620001ed565b905082815260208101848484011115620002a457620002a362000172565b5b620002b184828562000242565b509392505050565b600082601f830112620002d157620002d06200016d565b5b8151620002e38482602086016200026e565b91505092915050565b60006020828403121562000305576200030462000163565b5b600082015167ffffffffffffffff81111562000326576200032562000168565b5b6200033484828501620002b9565b91505092915050565b600081519050919050565b7f4e487b7100000000000000000000000000000000000000000000000000000000600052602260045260246000fd5b600060028204905060018216806200039057607f821691505b602082108103620003a657620003a562000348565b5b50919050565b60008190508160005260206000209050919050565b60006020601f8301049050919050565b600082821b905092915050565b600060088302620004107fffffffffffffffffffffffffffffffffffffffffffffffffffffffffffffffff82620003d1565b6200041c8683620003d1565b95508019841693508086168417925050509392505050565b6000819050919050565b6000819050919050565b600062000469620004636200045d8462000434565b6200043e565b62000434565b9050919050565b6000819050919050565b620004858362000448565b6200049d620004948262000470565b848454620003de565b825550505050565b600090565b620004b4620004a5565b620004c18184846200047a565b505050565b5b81811015620004e957620004dd600082620004aa565b600181019050620004c7565b5050565b601f82111562000538576200050281620003ac565b6200050d84620003c1565b810160208510156200051d578190505b620005356200052c85620003c1565b830182620004c6565b50505b505050565b600082821c905092915050565b60006200055d600019846008026200053d565b1980831691505092915050565b60006200057883836200054a565b9150826002028217905092915050565b62000593826200033d565b67ffffffffffffffff811115620005af57620005ae62000188565b5b620005bb825462000377565b620005c8828285620004ed565b600060209050601f831160018114620006005760008415620005eb578287015190505b620005f785826200056a565b86555062000667565b601f1984166200061086620003ac565b60005b828110156200063a5784890151825560018201915060208501945060208101905062000613565b868310156200065a578489015162000656601f8916826200054a565b8355505b6001600288020188555050505b505050505050565b6139a1806200067f6000396000f3fe608060405234801561001057600080fd5b50600436106101205760003560e01c80638da5cb5b116100ad578063e0186e8f11610071578063e0186e8f146102f6578063e985e9c514610312578063f242432a14610342578063f2fde38b1461035e578063f3f2994e1461037a57610120565b80638da5cb5b1461024f5780638f84aa091461026d57806397491d6f1461028c578063a22cb465146102a8578063c8920eb1146102c457610120565b80632eb2c2d6116100f45780632eb2c2d6146101d3578063390e8a77146101ef5780634e1273f41461020b578063715018a61461023b5780637ec9d81f1461024557610120565b8062fdd58e1461012557806301ffc9a7146101555780630e89341c1461018557806318160ddd146101b5575b600080fd5b61013f600480360381019061013a9190611fd0565b610384565b60405161014c919061201f565b60405180910390f35b61016f600480360381019061016a9190612092565b61044c565b60405161017c91906120da565b60405180910390f35b61019f600480360381019061019a91906120f5565b61052e565b6040516101ac91906121b2565b60405180910390f35b6101bd6105c2565b6040516101ca919061201f565b60405180910390f35b6101ed60048036038101906101e891906123d1565b6105cc565b005b610209600480360381019061020491906124a0565b61066d565b005b610225600480360381019061022091906125b6565b6107d5565b60405161023291906126ec565b60405180910390f35b6102436108ee565b005b61024d610902565b005b61025761093b565b604051610264919061271d565b60405180910390f35b610275610965565b604051610283929190612738565b60405180910390f35b6102a660048036038101906102a191906120f5565b610979565b005b6102c260048036038101906102bd919061278d565b610b87565b005b6102de60048036038101906102d991906120f5565b610b9d565b6040516102ed939291906127cd565b60405180910390f35b610310600480360381019061030b91906128b3565b610ceb565b005b61032c60048036038101906103279190612952565b610e24565b60405161033991906120da565b60405180910390f35b61035c60048036038101906103579190612992565b610eb8565b005b61037860048036038101906103739190612a29565b610f59565b005b610382610fdc565b005b60008073ffffffffffffffffffffffffffffffffffffffff168373ffffffffffffffffffffffffffffffffffffffff16036103f4576040517f08c379a00000000000000000000000000000000000000000000000000000000081526004016103eb90612ac8565b60405180910390fd5b60008083815260200190815260200160002060008473ffffffffffffffffffffffffffffffffffffffff1673ffffffffffffffffffffffffffffffffffffffff16815260200190815260200160002054905092915050565b60007fd9b67a26000000000000000000000000000000000000000000000000000000007bffffffffffffffffffffffffffffffffffffffffffffffffffffffff1916827bffffffffffffffffffffffffffffffffffffffffffffffffffffffff1916148061051757507f0e89341c000000000000000000000000000000000000000000000000000000007bffffffffffffffffffffffffffffffffffffffffffffffffffffffff1916827bffffffffffffffffffffffffffffffffffffffffffffffffffffffff1916145b8061052757506105268261103f565b5b9050919050565b60606002805461053d90612b17565b80601f016020809104026020016040519081016040528092919081815260200182805461056990612b17565b80156105b65780601f1061058b576101008083540402835291602001916105b6565b820191906000526020600020905b81548152906001019060200180831161059957829003601f168201915b50505050509050919050565b6000600554905090565b6105d46110a9565b73ffffffffffffffffffffffffffffffffffffffff168573ffffffffffffffffffffffffffffffffffffffff16148061061a5750610619856106146110a9565b610e24565b5b610659576040517f08c379a000000000000000000000000000000000000000000000000000000000815260040161065090612bba565b60405180910390fd5b61066685858585856110b1565b5050505050565b60016106af6004600086815260200190815260200160002060050160009054906101000a900473ffffffffffffffffffffffffffffffffffffffff1685610384565b146106ef576040517f08c379a00000000000000000000000000000000000000000000000000000000081526004016106e690612c4c565b60405180910390fd5b81600460008581526020019081526020016000206004015410610747576040517f08c379a000000000000000000000000000000000000000000000000000000000815260040161073e90612cde565b60405180910390fd5b61079a6004600085815260200190815260200160002060050160009054906101000a900473ffffffffffffffffffffffffffffffffffffffff163385600160405180602001604052806000815250610eb8565b816004600085815260200190815260200160002060030181905550806004600085815260200190815260200160002060040181905550505050565b6060815183511461081b576040517f08c379a000000000000000000000000000000000000000000000000000000000815260040161081290612d70565b60405180910390fd5b6000835167ffffffffffffffff811115610838576108376121d9565b5b6040519080825280602002602001820160405280156108665781602001602082028036833780820191505090505b50905060005b84518110156108e3576108b385828151811061088b5761088a612d90565b5b60200260200101518583815181106108a6576108a5612d90565b5b6020026020010151610384565b8282815181106108c6576108c5612d90565b5b602002602001018181525050806108dc90612dee565b905061086c565b508091505092915050565b6108f66113d2565b6109006000611450565b565b7f5ee989b429a5ba59d47a51f696c162d0b9d8496e76e883e23a9070b29206a717336040516109319190612e82565b60405180910390a1565b6000600360009054906101000a900473ffffffffffffffffffffffffffffffffffffffff16905090565b60008061097061093b565b33915091509091565b80426004600083815260200190815260200160002060040154111580156109a9575060016109a73383610384565b145b15610a7357610a01336004600084815260200190815260200160002060050160009054906101000a900473ffffffffffffffffffffffffffffffffffffffff1683600160405180602001604052806000815250610eb8565b60006004600083815260200190815260200160002060030181905550600060046000838152602001908152602001600020600401819055507ff9bbd47d9659083aa5b016ffd346aca413549aace523513f610200aeed1e1dd48133604051610a6a929190612eb0565b60405180910390a15b6001610a7f3384610384565b14610abf576040517f08c379a0000000000000000000000000000000000000000000000000000000008152600401610ab690612f25565b60405180910390fd5b610b12336004600085815260200190815260200160002060050160009054906101000a900473ffffffffffffffffffffffffffffffffffffffff1684600160405180602001604052806000815250610eb8565b60006004600084815260200190815260200160002060030181905550600060046000848152602001908152602001600020600401819055507ff9bbd47d9659083aa5b016ffd346aca413549aace523513f610200aeed1e1dd48233604051610b7b929190612eb0565b60405180910390a15050565b610b99610b926110a9565b8383611516565b5050565b60608060008060046000868152602001908152602001600020905080600001816001018260020154828054610bd190612b17565b80601f0160208091040260200160405190810160405280929190818152602001828054610bfd90612b17565b8015610c4a5780601f10610c1f57610100808354040283529160200191610c4a565b820191906000526020600020905b815481529060010190602001808311610c2d57829003601f168201915b50505050509250818054610c5d90612b17565b80601f0160208091040260200160405190810160405280929190818152602001828054610c8990612b17565b8015610cd65780601f10610cab57610100808354040283529160200191610cd6565b820191906000526020600020905b815481529060010190602001808311610cb957829003601f168201915b50505050509150935093509350509193909250565b610cf36113d2565b610d1184600554600160405180602001604052806000815250611682565b6040518060c001604052808481526020018381526020018281526020016000815260200160008152602001610d4461093b565b73ffffffffffffffffffffffffffffffffffffffff168152506004600060055481526020019081526020016000206000820151816000019081610d8791906130f1565b506020820151816001019081610d9d91906130f1565b5060408201518160020155606082015181600301556080820151816004015560a08201518160050160006101000a81548173ffffffffffffffffffffffffffffffffffffffff021916908373ffffffffffffffffffffffffffffffffffffffff16021790555090505060056000815480929190610e1990612dee565b919050555050505050565b6000600160008473ffffffffffffffffffffffffffffffffffffffff1673ffffffffffffffffffffffffffffffffffffffff16815260200190815260200160002060008373ffffffffffffffffffffffffffffffffffffffff1673ffffffffffffffffffffffffffffffffffffffff16815260200190815260200160002060009054906101000a900460ff16905092915050565b610ec06110a9565b73ffffffffffffffffffffffffffffffffffffffff168573ffffffffffffffffffffffffffffffffffffffff161480610f065750610f0585610f006110a9565b610e24565b5b610f45576040517f08c379a0000000000000000000000000000000000000000000000000000000008152600401610f3c90612bba565b60405180910390fd5b610f528585858585611832565b5050505050565b610f616113d2565b600073ffffffffffffffffffffffffffffffffffffffff168173ffffffffffffffffffffffffffffffffffffffff1603610fd0576040517f08c379a0000000000000000000000000000000000000000000000000000000008152600401610fc790613235565b60405180910390fd5b610fd981611450565b50565b3373ffffffffffffffffffffffffffffffffffffffff16610ffb61093b565b73ffffffffffffffffffffffffffffffffffffffff167fb723a148c53b3b40779c318aaf4ff73bb2802621afbabea9960a30e2dc1c556960405160405180910390a3565b60007f01ffc9a7000000000000000000000000000000000000000000000000000000007bffffffffffffffffffffffffffffffffffffffffffffffffffffffff1916827bffffffffffffffffffffffffffffffffffffffffffffffffffffffff1916149050919050565b600033905090565b81518351146110f5576040517f08c379a00000000000000000000000000000000000000000000000000000000081526004016110ec906132c7565b60405180910390fd5b600073ffffffffffffffffffffffffffffffffffffffff168473ffffffffffffffffffffffffffffffffffffffff1603611164576040517f08c379a000000000000000000000000000000000000000000000000000000000815260040161115b90613359565b60405180910390fd5b600061116e6110a9565b905061117e818787878787611acd565b60005b845181101561132f57600085828151811061119f5761119e612d90565b5b6020026020010151905060008583815181106111be576111bd612d90565b5b60200260200101519050600080600084815260200190815260200160002060008b73ffffffffffffffffffffffffffffffffffffffff1673ffffffffffffffffffffffffffffffffffffffff1681526020019081526020016000205490508181101561125f576040517f08c379a0000000000000000000000000000000000000000000000000000000008152600401611256906133eb565b60405180910390fd5b81810360008085815260200190815260200160002060008c73ffffffffffffffffffffffffffffffffffffffff1673ffffffffffffffffffffffffffffffffffffffff168152602001908152602001600020819055508160008085815260200190815260200160002060008b73ffffffffffffffffffffffffffffffffffffffff1673ffffffffffffffffffffffffffffffffffffffff1681526020019081526020016000206000828254611314919061340b565b925050819055505050508061132890612dee565b9050611181565b508473ffffffffffffffffffffffffffffffffffffffff168673ffffffffffffffffffffffffffffffffffffffff168273ffffffffffffffffffffffffffffffffffffffff167f4a39dc06d4c0dbc64b70af90fd698a233a518aa5d07e595d983b8c0526c8f7fb87876040516113a692919061343f565b60405180910390a46113bc818787878787611ad5565b6113ca818787878787611add565b505050505050565b6113da6110a9565b73ffffffffffffffffffffffffffffffffffffffff166113f861093b565b73ffffffffffffffffffffffffffffffffffffffff161461144e576040517f08c379a0000000000000000000000000000000000000000000000000000000008152600401611445906134c2565b60405180910390fd5b565b6000600360009054906101000a900473ffffffffffffffffffffffffffffffffffffffff16905081600360006101000a81548173ffffffffffffffffffffffffffffffffffffffff021916908373ffffffffffffffffffffffffffffffffffffffff1602179055508173ffffffffffffffffffffffffffffffffffffffff168173ffffffffffffffffffffffffffffffffffffffff167f8be0079c531659141344cd1fd0a4f28419497f9722a3daafe3b4186f6b6457e060405160405180910390a35050565b8173ffffffffffffffffffffffffffffffffffffffff168373ffffffffffffffffffffffffffffffffffffffff1603611584576040517f08c379a000000000000000000000000000000000000000000000000000000000815260040161157b90613554565b60405180910390fd5b80600160008573ffffffffffffffffffffffffffffffffffffffff1673ffffffffffffffffffffffffffffffffffffffff16815260200190815260200160002060008473ffffffffffffffffffffffffffffffffffffffff1673ffffffffffffffffffffffffffffffffffffffff16815260200190815260200160002060006101000a81548160ff0219169083151502179055508173ffffffffffffffffffffffffffffffffffffffff168373ffffffffffffffffffffffffffffffffffffffff167f17307eab39ab6107e8899845ad3d59bd9653f200f220920489ca2b5937696c318360405161167591906120da565b60405180910390a3505050565b600073ffffffffffffffffffffffffffffffffffffffff168473ffffffffffffffffffffffffffffffffffffffff16036116f1576040517f08c379a00000000000000000000000000000000000000000000000000000000081526004016116e8906135e6565b60405180910390fd5b60006116fb6110a9565b9050600061170885611cb4565b9050600061171585611cb4565b905061172683600089858589611acd565b8460008088815260200190815260200160002060008973ffffffffffffffffffffffffffffffffffffffff1673ffffffffffffffffffffffffffffffffffffffff1681526020019081526020016000206000828254611785919061340b565b925050819055508673ffffffffffffffffffffffffffffffffffffffff16600073ffffffffffffffffffffffffffffffffffffffff168473ffffffffffffffffffffffffffffffffffffffff167fc3d58168c5ae7397731d063d5bbf3d657854427343f4c083240f7aacaa2d0f628989604051611803929190613606565b60405180910390a461181a83600089858589611ad5565b61182983600089898989611d2e565b50505050505050565b600073ffffffffffffffffffffffffffffffffffffffff168473ffffffffffffffffffffffffffffffffffffffff16036118a1576040517f08c379a000000000000000000000000000000000000000000000000000000000815260040161189890613359565b60405180910390fd5b60006118ab6110a9565b905060006118b885611cb4565b905060006118c585611cb4565b90506118d5838989858589611acd565b600080600088815260200190815260200160002060008a73ffffffffffffffffffffffffffffffffffffffff1673ffffffffffffffffffffffffffffffffffffffff1681526020019081526020016000205490508581101561196c576040517f08c379a0000000000000000000000000000000000000000000000000000000008152600401611963906133eb565b60405180910390fd5b85810360008089815260200190815260200160002060008b73ffffffffffffffffffffffffffffffffffffffff1673ffffffffffffffffffffffffffffffffffffffff168152602001908152602001600020819055508560008089815260200190815260200160002060008a73ffffffffffffffffffffffffffffffffffffffff1673ffffffffffffffffffffffffffffffffffffffff1681526020019081526020016000206000828254611a21919061340b565b925050819055508773ffffffffffffffffffffffffffffffffffffffff168973ffffffffffffffffffffffffffffffffffffffff168573ffffffffffffffffffffffffffffffffffffffff167fc3d58168c5ae7397731d063d5bbf3d657854427343f4c083240f7aacaa2d0f628a8a604051611a9e929190613606565b60405180910390a4611ab4848a8a86868a611ad5565b611ac2848a8a8a8a8a611d2e565b505050505050505050565b505050505050565b505050505050565b611afc8473ffffffffffffffffffffffffffffffffffffffff16611f05565b15611cac578373ffffffffffffffffffffffffffffffffffffffff1663bc197c8187878686866040518663ffffffff1660e01b8152600401611b42959493929190613684565b6020604051808303816000875af1925050508015611b7e57506040513d601f19601f82011682018060405250810190611b7b9190613701565b60015b611c2357611b8a61373b565b806308c379a003611be65750611b9e61375d565b80611ba95750611be8565b806040517f08c379a0000000000000000000000000000000000000000000000000000000008152600401611bdd91906121b2565b60405180910390fd5b505b6040517f08c379a0000000000000000000000000000000000000000000000000000000008152600401611c1a9061385f565b60405180910390fd5b63bc197c8160e01b7bffffffffffffffffffffffffffffffffffffffffffffffffffffffff1916817bffffffffffffffffffffffffffffffffffffffffffffffffffffffff191614611caa576040517f08c379a0000000000000000000000000000000000000000000000000000000008152600401611ca1906138f1565b60405180910390fd5b505b505050505050565b60606000600167ffffffffffffffff811115611cd357611cd26121d9565b5b604051908082528060200260200182016040528015611d015781602001602082028036833780820191505090505b5090508281600081518110611d1957611d18612d90565b5b60200260200101818152505080915050919050565b611d4d8473ffffffffffffffffffffffffffffffffffffffff16611f05565b15611efd578373ffffffffffffffffffffffffffffffffffffffff1663f23a6e6187878686866040518663ffffffff1660e01b8152600401611d93959493929190613911565b6020604051808303816000875af1925050508015611dcf57506040513d601f19601f82011682018060405250810190611dcc9190613701565b60015b611e7457611ddb61373b565b806308c379a003611e375750611def61375d565b80611dfa5750611e39565b806040517f08c379a0000000000000000000000000000000000000000000000000000000008152600401611e2e91906121b2565b60405180910390fd5b505b6040517f08c379a0000000000000000000000000000000000000000000000000000000008152600401611e6b9061385f565b60405180910390fd5b63f23a6e6160e01b7bffffffffffffffffffffffffffffffffffffffffffffffffffffffff1916817bffffffffffffffffffffffffffffffffffffffffffffffffffffffff191614611efb576040517f08c379a0000000000000000000000000000000000000000000000000000000008152600401611ef2906138f1565b60405180910390fd5b505b505050505050565b6000808273ffffffffffffffffffffffffffffffffffffffff163b119050919050565b6000604051905090565b600080fd5b600080fd5b600073ffffffffffffffffffffffffffffffffffffffff82169050919050565b6000611f6782611f3c565b9050919050565b611f7781611f5c565b8114611f8257600080fd5b50565b600081359050611f9481611f6e565b92915050565b6000819050919050565b611fad81611f9a565b8114611fb857600080fd5b50565b600081359050611fca81611fa4565b92915050565b60008060408385031215611fe757611fe6611f32565b5b6000611ff585828601611f85565b925050602061200685828601611fbb565b9150509250929050565b61201981611f9a565b82525050565b60006020820190506120346000830184612010565b92915050565b60007fffffffff0000000000000000000000000000000000000000000000000000000082169050919050565b61206f8161203a565b811461207a57600080fd5b50565b60008135905061208c81612066565b92915050565b6000602082840312156120a8576120a7611f32565b5b60006120b68482850161207d565b91505092915050565b60008115159050919050565b6120d4816120bf565b82525050565b60006020820190506120ef60008301846120cb565b92915050565b60006020828403121561210b5761210a611f32565b5b600061211984828501611fbb565b91505092915050565b600081519050919050565b600082825260208201905092915050565b60005b8381101561215c578082015181840152602081019050612141565b60008484015250505050565b6000601f19601f8301169050919050565b600061218482612122565b61218e818561212d565b935061219e81856020860161213e565b6121a781612168565b840191505092915050565b600060208201905081810360008301526121cc8184612179565b905092915050565b600080fd5b7f4e487b7100000000000000000000000000000000000000000000000000000000600052604160045260246000fd5b61221182612168565b810181811067ffffffffffffffff821117156122305761222f6121d9565b5b80604052505050565b6000612243611f28565b905061224f8282612208565b919050565b600067ffffffffffffffff82111561226f5761226e6121d9565b5b602082029050602081019050919050565b600080fd5b600061229861229384612254565b612239565b905080838252602082019050602084028301858111156122bb576122ba612280565b5b835b818110156122e457806122d08882611fbb565b8452602084019350506020810190506122bd565b5050509392505050565b600082601f830112612303576123026121d4565b5b8135612313848260208601612285565b91505092915050565b600080fd5b600067ffffffffffffffff82111561233c5761233b6121d9565b5b61234582612168565b9050602081019050919050565b82818337600083830152505050565b600061237461236f84612321565b612239565b9050828152602081018484840111156123905761238f61231c565b5b61239b848285612352565b509392505050565b600082601f8301126123b8576123b76121d4565b5b81356123c8848260208601612361565b91505092915050565b600080600080600060a086880312156123ed576123ec611f32565b5b60006123fb88828901611f85565b955050602061240c88828901611f85565b945050604086013567ffffffffffffffff81111561242d5761242c611f37565b5b612439888289016122ee565b935050606086013567ffffffffffffffff81111561245a57612459611f37565b5b612466888289016122ee565b925050608086013567ffffffffffffffff81111561248757612486611f37565b5b612493888289016123a3565b9150509295509295909350565b6000806000606084860312156124b9576124b8611f32565b5b60006124c786828701611fbb565b93505060206124d886828701611fbb565b92505060406124e986828701611fbb565b9150509250925092565b600067ffffffffffffffff82111561250e5761250d6121d9565b5b602082029050602081019050919050565b600061253261252d846124f3565b612239565b9050808382526020820190506020840283018581111561255557612554612280565b5b835b8181101561257e578061256a8882611f85565b845260208401935050602081019050612557565b5050509392505050565b600082601f83011261259d5761259c6121d4565b5b81356125ad84826020860161251f565b91505092915050565b600080604083850312156125cd576125cc611f32565b5b600083013567ffffffffffffffff8111156125eb576125ea611f37565b5b6125f785828601612588565b925050602083013567ffffffffffffffff81111561261857612617611f37565b5b612624858286016122ee565b9150509250929050565b600081519050919050565b600082825260208201905092915050565b6000819050602082019050919050565b61266381611f9a565b82525050565b6000612675838361265a565b60208301905092915050565b6000602082019050919050565b60006126998261262e565b6126a38185612639565b93506126ae8361264a565b8060005b838110156126df5781516126c68882612669565b97506126d183612681565b9250506001810190506126b2565b5085935050505092915050565b60006020820190508181036000830152612706818461268e565b905092915050565b61271781611f5c565b82525050565b6000602082019050612732600083018461270e565b92915050565b600060408201905061274d600083018561270e565b61275a602083018461270e565b9392505050565b61276a816120bf565b811461277557600080fd5b50565b60008135905061278781612761565b92915050565b600080604083850312156127a4576127a3611f32565b5b60006127b285828601611f85565b92505060206127c385828601612778565b9150509250929050565b600060608201905081810360008301526127e78186612179565b905081810360208301526127fb8185612179565b905061280a6040830184612010565b949350505050565b600067ffffffffffffffff82111561282d5761282c6121d9565b5b61283682612168565b9050602081019050919050565b600061285661285184612812565b612239565b9050828152602081018484840111156128725761287161231c565b5b61287d848285612352565b509392505050565b600082601f83011261289a576128996121d4565b5b81356128aa848260208601612843565b91505092915050565b600080600080608085870312156128cd576128cc611f32565b5b60006128db87828801611f85565b945050602085013567ffffffffffffffff8111156128fc576128fb611f37565b5b61290887828801612885565b935050604085013567ffffffffffffffff81111561292957612928611f37565b5b61293587828801612885565b925050606061294687828801611fbb565b91505092959194509250565b6000806040838503121561296957612968611f32565b5b600061297785828601611f85565b925050602061298885828601611f85565b9150509250929050565b600080600080600060a086880312156129ae576129ad611f32565b5b60006129bc88828901611f85565b95505060206129cd88828901611f85565b94505060406129de88828901611fbb565b93505060606129ef88828901611fbb565b925050608086013567ffffffffffffffff811115612a1057612a0f611f37565b5b612a1c888289016123a3565b9150509295509295909350565b600060208284031215612a3f57612a3e611f32565b5b6000612a4d84828501611f85565b91505092915050565b7f455243313135353a2061646472657373207a65726f206973206e6f742061207660008201527f616c6964206f776e657200000000000000000000000000000000000000000000602082015250565b6000612ab2602a8361212d565b9150612abd82612a56565b604082019050919050565b60006020820190508181036000830152612ae181612aa5565b9050919050565b7f4e487b7100000000000000000000000000000000000000000000000000000000600052602260045260246000fd5b60006002820490506001821680612b2f57607f821691505b602082108103612b4257612b41612ae8565b5b50919050565b7f455243313135353a2063616c6c6572206973206e6f7420746f6b656e206f776e60008201527f6572206f7220617070726f766564000000000000000000000000000000000000602082015250565b6000612ba4602e8361212d565b9150612baf82612b48565b604082019050919050565b60006020820190508181036000830152612bd381612b97565b9050919050565b7f5468652061707020646f6573206e6f74206f776e20746869732076656869636c60008201527f6500000000000000000000000000000000000000000000000000000000000000602082015250565b6000612c3660218361212d565b9150612c4182612bda565b604082019050919050565b60006020820190508181036000830152612c6581612c29565b9050919050565b7f56656869636c6520697320616c72656164792072656e74656420647572696e6760008201527f20746869732074696d6500000000000000000000000000000000000000000000602082015250565b6000612cc8602a8361212d565b9150612cd382612c6c565b604082019050919050565b60006020820190508181036000830152612cf781612cbb565b9050919050565b7f455243313135353a206163636f756e747320616e6420696473206c656e67746860008201527f206d69736d617463680000000000000000000000000000000000000000000000602082015250565b6000612d5a60298361212d565b9150612d6582612cfe565b604082019050919050565b60006020820190508181036000830152612d8981612d4d565b9050919050565b7f4e487b7100000000000000000000000000000000000000000000000000000000600052603260045260246000fd5b7f4e487b7100000000000000000000000000000000000000000000000000000000600052601160045260246000fd5b6000612df982611f9a565b91507fffffffffffffffffffffffffffffffffffffffffffffffffffffffffffffffff8203612e2b57612e2a612dbf565b5b600182019050919050565b7f44756d6d792066756e6374696f6e2063616c6c65640000000000000000000000600082015250565b6000612e6c60158361212d565b9150612e7782612e36565b602082019050919050565b60006040820190508181036000830152612e9b81612e5f565b9050612eaa602083018461270e565b92915050565b6000604082019050612ec56000830185612010565b612ed2602083018461270e565b9392505050565b7f596f7520646f206e6f74206f776e20746869732076656869636c650000000000600082015250565b6000612f0f601b8361212d565b9150612f1a82612ed9565b602082019050919050565b60006020820190508181036000830152612f3e81612f02565b9050919050565b60008190508160005260206000209050919050565b60006020601f8301049050919050565b600082821b905092915050565b600060088302612fa77fffffffffffffffffffffffffffffffffffffffffffffffffffffffffffffffff82612f6a565b612fb18683612f6a565b95508019841693508086168417925050509392505050565b6000819050919050565b6000612fee612fe9612fe484611f9a565b612fc9565b611f9a565b9050919050565b6000819050919050565b61300883612fd3565b61301c61301482612ff5565b848454612f77565b825550505050565b600090565b613031613024565b61303c818484612fff565b505050565b5b8181101561306057613055600082613029565b600181019050613042565b5050565b601f8211156130a55761307681612f45565b61307f84612f5a565b8101602085101561308e578190505b6130a261309a85612f5a565b830182613041565b50505b505050565b600082821c905092915050565b60006130c8600019846008026130aa565b1980831691505092915050565b60006130e183836130b7565b9150826002028217905092915050565b6130fa82612122565b67ffffffffffffffff811115613113576131126121d9565b5b61311d8254612b17565b613128828285613064565b600060209050601f83116001811461315b5760008415613149578287015190505b61315385826130d5565b8655506131bb565b601f19841661316986612f45565b60005b828110156131915784890151825560018201915060208501945060208101905061316c565b868310156131ae57848901516131aa601f8916826130b7565b8355505b6001600288020188555050505b505050505050565b7f4f776e61626c653a206e6577206f776e657220697320746865207a65726f206160008201527f6464726573730000000000000000000000000000000000000000000000000000602082015250565b600061321f60268361212d565b915061322a826131c3565b604082019050919050565b6000602082019050818103600083015261324e81613212565b9050919050565b7f455243313135353a2069647320616e6420616d6f756e7473206c656e6774682060008201527f6d69736d61746368000000000000000000000000000000000000000000000000602082015250565b60006132b160288361212d565b91506132bc82613255565b604082019050919050565b600060208201905081810360008301526132e0816132a4565b9050919050565b7f455243313135353a207472616e7366657220746f20746865207a65726f20616460008201527f6472657373000000000000000000000000000000000000000000000000000000602082015250565b600061334360258361212d565b915061334e826132e7565b604082019050919050565b6000602082019050818103600083015261337281613336565b9050919050565b7f455243313135353a20696e73756666696369656e742062616c616e636520666f60008201527f72207472616e7366657200000000000000000000000000000000000000000000602082015250565b60006133d5602a8361212d565b91506133e082613379565b604082019050919050565b60006020820190508181036000830152613404816133c8565b9050919050565b600061341682611f9a565b915061342183611f9a565b925082820190508082111561343957613438612dbf565b5b92915050565b60006040820190508181036000830152613459818561268e565b9050818103602083015261346d818461268e565b90509392505050565b7f4f776e61626c653a2063616c6c6572206973206e6f7420746865206f776e6572600082015250565b60006134ac60208361212d565b91506134b782613476565b602082019050919050565b600060208201905081810360008301526134db8161349f565b9050919050565b7f455243313135353a2073657474696e6720617070726f76616c2073746174757360008201527f20666f722073656c660000000000000000000000000000000000000000000000602082015250565b600061353e60298361212d565b9150613549826134e2565b604082019050919050565b6000602082019050818103600083015261356d81613531565b9050919050565b7f455243313135353a206d696e7420746f20746865207a65726f2061646472657360008201527f7300000000000000000000000000000000000000000000000000000000000000602082015250565b60006135d060218361212d565b91506135db82613574565b604082019050919050565b600060208201905081810360008301526135ff816135c3565b9050919050565b600060408201905061361b6000830185612010565b6136286020830184612010565b9392505050565b600081519050919050565b600082825260208201905092915050565b60006136568261362f565b613660818561363a565b935061367081856020860161213e565b61367981612168565b840191505092915050565b600060a082019050613699600083018861270e565b6136a6602083018761270e565b81810360408301526136b8818661268e565b905081810360608301526136cc818561268e565b905081810360808301526136e0818461364b565b90509695505050505050565b6000815190506136fb81612066565b92915050565b60006020828403121561371757613716611f32565b5b6000613725848285016136ec565b91505092915050565b60008160e01c9050919050565b600060033d111561375a5760046000803e61375760005161372e565b90505b90565b600060443d106137ea5761376f611f28565b60043d036004823e80513d602482011167ffffffffffffffff821117156137975750506137ea565b808201805167ffffffffffffffff8111156137b557505050506137ea565b80602083010160043d0385018111156137d25750505050506137ea565b6137e182602001850186612208565b82955050505050505b90565b7f455243313135353a207472616e7366657220746f206e6f6e2d4552433131353560008201527f526563656976657220696d706c656d656e746572000000000000000000000000602082015250565b600061384960348361212d565b9150613854826137ed565b604082019050919050565b600060208201905081810360008301526138788161383c565b9050919050565b7f455243313135353a204552433131353552656365697665722072656a6563746560008201527f6420746f6b656e73000000000000000000000000000000000000000000000000602082015250565b60006138db60288361212d565b91506138e68261387f565b604082019050919050565b6000602082019050818103600083015261390a816138ce565b9050919050565b600060a082019050613926600083018861270e565b613933602083018761270e565b6139406040830186612010565b61394d6060830185612010565b818103608083015261395f818461364b565b9050969550505050505056fea2646970667358221220a283a461d70e352ac6a03a453f017188cd89445eaa8fad32593c42f10fd679a564736f6c63430008130033",
  "immutableReferences": {},
  "source": "pragma solidity ^0.8.1;\n\nimport \"@openzeppelin/contracts/token/ERC1155/ERC1155.sol\";\nimport \"@openzeppelin/contracts/access/Ownable.sol\";\n\ncontract ElectricVehicle is ERC1155, Ownable {\n    // Add a constructor with a URI parameter\n    constructor(string memory uri) ERC1155(uri) Ownable() {\n    }\n\n    struct Vehicle {\n        string make;\n        string model;\n        uint256 price;\n        uint256 startTime;\n        uint256 endTime;\n        address appAddress;\n    }\n\n    mapping(uint256 => Vehicle) private _vehicleData;\n\n    uint256 private _currentTokenId = 0;\n\n    event DebugEvent(string message, address value);\n    function dummyFunction() public {\n        emit DebugEvent(\"Dummy function called\", msg.sender);\n    }\n\n    event OwnerAndSender(address indexed owner, address indexed sender);\n\n    function emitOwnerAndSender() public {\n        emit OwnerAndSender(owner(), msg.sender);\n    }\n    function ownerAddress() public view returns (address, address) {\n        return (owner(), msg.sender);\n    }\n\n\n    function mintVehicle(\n        address to,\n        string memory make,\n        string memory model,\n        uint256 price\n    ) public onlyOwner {\n        _mint(to, _currentTokenId, 1, \"\");\n        _vehicleData[_currentTokenId] = Vehicle(make, model, price, 0, 0, owner());\n        _currentTokenId++;\n    }\n\n\n    function rentVehicle(uint256 tokenId, uint256 startTime, uint256 endTime) public {\n        require(balanceOf(_vehicleData[tokenId].appAddress, tokenId) == 1, \"The app does not own this vehicle\");\n        require(_vehicleData[tokenId].endTime < startTime, \"Vehicle is already rented during this time\");\n\n        // Transfer ownership to the renter\n        safeTransferFrom(_vehicleData[tokenId].appAddress, msg.sender, tokenId, 1, \"\");\n\n        _vehicleData[tokenId].startTime = startTime;\n        _vehicleData[tokenId].endTime = endTime;\n    }\n\n    event RentalEnded(uint256 tokenId, address renter);\n\n    function endRental(uint256 tokenId) public checkRentalStatus(tokenId) {\n        require(balanceOf(msg.sender, tokenId) == 1, \"You do not own this vehicle\");\n\n        // Transfer ownership back to the app\n        safeTransferFrom(msg.sender, _vehicleData[tokenId].appAddress, tokenId, 1, \"\");\n\n        // Reset rental start and end times\n        _vehicleData[tokenId].startTime = 0;\n        _vehicleData[tokenId].endTime = 0;\n\n        emit RentalEnded(tokenId, msg.sender);\n    }\n\n    modifier checkRentalStatus(uint256 tokenId) {\n        if (_vehicleData[tokenId].endTime <= block.timestamp && balanceOf(msg.sender, tokenId) == 1) {\n            // Transfer ownership back to the app\n            safeTransferFrom(msg.sender, _vehicleData[tokenId].appAddress, tokenId, 1, \"\");\n\n            // Reset rental start and end times\n            _vehicleData[tokenId].startTime = 0;\n            _vehicleData[tokenId].endTime = 0;\n\n            emit RentalEnded(tokenId, msg.sender);\n        }\n        _;\n    }\n\n    function getVehicleData(uint256 tokenId)\n    public\n    view\n    returns (\n        string memory make,\n        string memory model,\n        uint256 price\n    )\n    {\n        Vehicle storage vehicle = _vehicleData[tokenId];\n        return (vehicle.make, vehicle.model, vehicle.price);\n    }\n\n    function totalSupply() public view returns (uint256) {\n        return _currentTokenId;\n    }\n}\n",
  "sourcePath": "/Users/acsatlos/WebstormProjects/ElectricVehicleSharing/smart-contract/contracts/ElectricVehicle.sol",
  "compiler": {
    "name": "solc",
    "version": "0.8.19+commit.7dd6d404.Emscripten.clang"
  },
  "schemaVersion": "3.4.13",
  "updatedAt": "2023-05-13T09:48:34.710Z",
  "networkType": "ethereum",
  "devdoc": {
    "events": {
      "ApprovalForAll(address,address,bool)": {
        "details": "Emitted when `account` grants or revokes permission to `operator` to transfer their tokens, according to `approved`."
      },
      "TransferBatch(address,address,address,uint256[],uint256[])": {
        "details": "Equivalent to multiple {TransferSingle} events, where `operator`, `from` and `to` are the same for all transfers."
      },
      "TransferSingle(address,address,address,uint256,uint256)": {
        "details": "Emitted when `value` tokens of token type `id` are transferred from `from` to `to` by `operator`."
      },
      "URI(string,uint256)": {
        "details": "Emitted when the URI for token type `id` changes to `value`, if it is a non-programmatic URI. If an {URI} event was emitted for `id`, the standard https://eips.ethereum.org/EIPS/eip-1155#metadata-extensions[guarantees] that `value` will equal the value returned by {IERC1155MetadataURI-uri}."
      }
    },
    "kind": "dev",
    "methods": {
      "balanceOf(address,uint256)": {
        "details": "See {IERC1155-balanceOf}. Requirements: - `account` cannot be the zero address."
      },
      "balanceOfBatch(address[],uint256[])": {
        "details": "See {IERC1155-balanceOfBatch}. Requirements: - `accounts` and `ids` must have the same length."
      },
      "isApprovedForAll(address,address)": {
        "details": "See {IERC1155-isApprovedForAll}."
      },
      "owner()": {
        "details": "Returns the address of the current owner."
      },
      "renounceOwnership()": {
        "details": "Leaves the contract without owner. It will not be possible to call `onlyOwner` functions anymore. Can only be called by the current owner. NOTE: Renouncing ownership will leave the contract without an owner, thereby removing any functionality that is only available to the owner."
      },
      "safeBatchTransferFrom(address,address,uint256[],uint256[],bytes)": {
        "details": "See {IERC1155-safeBatchTransferFrom}."
      },
      "safeTransferFrom(address,address,uint256,uint256,bytes)": {
        "details": "See {IERC1155-safeTransferFrom}."
      },
      "setApprovalForAll(address,bool)": {
        "details": "See {IERC1155-setApprovalForAll}."
      },
      "supportsInterface(bytes4)": {
        "details": "See {IERC165-supportsInterface}."
      },
      "transferOwnership(address)": {
        "details": "Transfers ownership of the contract to a new account (`newOwner`). Can only be called by the current owner."
      },
      "uri(uint256)": {
        "details": "See {IERC1155MetadataURI-uri}. This implementation returns the same URI for *all* token types. It relies on the token type ID substitution mechanism https://eips.ethereum.org/EIPS/eip-1155#metadata[defined in the EIP]. Clients calling this function must replace the `\\{id\\}` substring with the actual token type ID."
      }
    },
    "version": 1
  },
  "userdoc": {
    "kind": "user",
    "methods": {},
    "version": 1
  }
}