{
  "contractName": "ElectricVehicle",
  "abi": [
    {
      "inputs": [
        {
          "internalType": "string",
          "name": "uri",
          "type": "string"
        }
      ],
      "stateMutability": "nonpayable",
      "type": "constructor"
    },
    {
      "anonymous": false,
      "inputs": [
        {
          "indexed": true,
          "internalType": "address",
          "name": "account",
          "type": "address"
        },
        {
          "indexed": true,
          "internalType": "address",
          "name": "operator",
          "type": "address"
        },
        {
          "indexed": false,
          "internalType": "bool",
          "name": "approved",
          "type": "bool"
        }
      ],
      "name": "ApprovalForAll",
      "type": "event"
    },
    {
      "anonymous": false,
      "inputs": [
        {
          "indexed": false,
          "internalType": "string",
          "name": "message",
          "type": "string"
        },
        {
          "indexed": false,
          "internalType": "address",
          "name": "value",
          "type": "address"
        }
      ],
      "name": "DebugEvent",
      "type": "event"
    },
    {
      "anonymous": false,
      "inputs": [
        {
          "indexed": true,
          "internalType": "address",
          "name": "owner",
          "type": "address"
        },
        {
          "indexed": true,
          "internalType": "address",
          "name": "sender",
          "type": "address"
        }
      ],
      "name": "OwnerAndSender",
      "type": "event"
    },
    {
      "anonymous": false,
      "inputs": [
        {
          "indexed": true,
          "internalType": "address",
          "name": "previousOwner",
          "type": "address"
        },
        {
          "indexed": true,
          "internalType": "address",
          "name": "newOwner",
          "type": "address"
        }
      ],
      "name": "OwnershipTransferred",
      "type": "event"
    },
    {
      "anonymous": false,
      "inputs": [
        {
          "indexed": false,
          "internalType": "uint256",
          "name": "tokenId",
          "type": "uint256"
        },
        {
          "indexed": false,
          "internalType": "address",
          "name": "renter",
          "type": "address"
        }
      ],
      "name": "RentalEnded",
      "type": "event"
    },
    {
      "anonymous": false,
      "inputs": [
        {
          "indexed": true,
          "internalType": "address",
          "name": "operator",
          "type": "address"
        },
        {
          "indexed": true,
          "internalType": "address",
          "name": "from",
          "type": "address"
        },
        {
          "indexed": true,
          "internalType": "address",
          "name": "to",
          "type": "address"
        },
        {
          "indexed": false,
          "internalType": "uint256[]",
          "name": "ids",
          "type": "uint256[]"
        },
        {
          "indexed": false,
          "internalType": "uint256[]",
          "name": "values",
          "type": "uint256[]"
        }
      ],
      "name": "TransferBatch",
      "type": "event"
    },
    {
      "anonymous": false,
      "inputs": [
        {
          "indexed": true,
          "internalType": "address",
          "name": "operator",
          "type": "address"
        },
        {
          "indexed": true,
          "internalType": "address",
          "name": "from",
          "type": "address"
        },
        {
          "indexed": true,
          "internalType": "address",
          "name": "to",
          "type": "address"
        },
        {
          "indexed": false,
          "internalType": "uint256",
          "name": "id",
          "type": "uint256"
        },
        {
          "indexed": false,
          "internalType": "uint256",
          "name": "value",
          "type": "uint256"
        }
      ],
      "name": "TransferSingle",
      "type": "event"
    },
    {
      "anonymous": false,
      "inputs": [
        {
          "indexed": false,
          "internalType": "string",
          "name": "value",
          "type": "string"
        },
        {
          "indexed": true,
          "internalType": "uint256",
          "name": "id",
          "type": "uint256"
        }
      ],
      "name": "URI",
      "type": "event"
    },
    {
      "inputs": [
        {
          "internalType": "address",
          "name": "account",
          "type": "address"
        },
        {
          "internalType": "uint256",
          "name": "id",
          "type": "uint256"
        }
      ],
      "name": "balanceOf",
      "outputs": [
        {
          "internalType": "uint256",
          "name": "",
          "type": "uint256"
        }
      ],
      "stateMutability": "view",
      "type": "function",
      "constant": true
    },
    {
      "inputs": [
        {
          "internalType": "address[]",
          "name": "accounts",
          "type": "address[]"
        },
        {
          "internalType": "uint256[]",
          "name": "ids",
          "type": "uint256[]"
        }
      ],
      "name": "balanceOfBatch",
      "outputs": [
        {
          "internalType": "uint256[]",
          "name": "",
          "type": "uint256[]"
        }
      ],
      "stateMutability": "view",
      "type": "function",
      "constant": true
    },
    {
      "inputs": [
        {
          "internalType": "address",
          "name": "account",
          "type": "address"
        },
        {
          "internalType": "address",
          "name": "operator",
          "type": "address"
        }
      ],
      "name": "isApprovedForAll",
      "outputs": [
        {
          "internalType": "bool",
          "name": "",
          "type": "bool"
        }
      ],
      "stateMutability": "view",
      "type": "function",
      "constant": true
    },
    {
      "inputs": [],
      "name": "owner",
      "outputs": [
        {
          "internalType": "address",
          "name": "",
          "type": "address"
        }
      ],
      "stateMutability": "view",
      "type": "function",
      "constant": true
    },
    {
      "inputs": [],
      "name": "renounceOwnership",
      "outputs": [],
      "stateMutability": "nonpayable",
      "type": "function"
    },
    {
      "inputs": [
        {
          "internalType": "address",
          "name": "from",
          "type": "address"
        },
        {
          "internalType": "address",
          "name": "to",
          "type": "address"
        },
        {
          "internalType": "uint256[]",
          "name": "ids",
          "type": "uint256[]"
        },
        {
          "internalType": "uint256[]",
          "name": "amounts",
          "type": "uint256[]"
        },
        {
          "internalType": "bytes",
          "name": "data",
          "type": "bytes"
        }
      ],
      "name": "safeBatchTransferFrom",
      "outputs": [],
      "stateMutability": "nonpayable",
      "type": "function"
    },
    {
      "inputs": [
        {
          "internalType": "address",
          "name": "from",
          "type": "address"
        },
        {
          "internalType": "address",
          "name": "to",
          "type": "address"
        },
        {
          "internalType": "uint256",
          "name": "id",
          "type": "uint256"
        },
        {
          "internalType": "uint256",
          "name": "amount",
          "type": "uint256"
        },
        {
          "internalType": "bytes",
          "name": "data",
          "type": "bytes"
        }
      ],
      "name": "safeTransferFrom",
      "outputs": [],
      "stateMutability": "nonpayable",
      "type": "function"
    },
    {
      "inputs": [
        {
          "internalType": "address",
          "name": "operator",
          "type": "address"
        },
        {
          "internalType": "bool",
          "name": "approved",
          "type": "bool"
        }
      ],
      "name": "setApprovalForAll",
      "outputs": [],
      "stateMutability": "nonpayable",
      "type": "function"
    },
    {
      "inputs": [
        {
          "internalType": "bytes4",
          "name": "interfaceId",
          "type": "bytes4"
        }
      ],
      "name": "supportsInterface",
      "outputs": [
        {
          "internalType": "bool",
          "name": "",
          "type": "bool"
        }
      ],
      "stateMutability": "view",
      "type": "function",
      "constant": true
    },
    {
      "inputs": [
        {
          "internalType": "address",
          "name": "newOwner",
          "type": "address"
        }
      ],
      "name": "transferOwnership",
      "outputs": [],
      "stateMutability": "nonpayable",
      "type": "function"
    },
    {
      "inputs": [
        {
          "internalType": "uint256",
          "name": "",
          "type": "uint256"
        }
      ],
      "name": "uri",
      "outputs": [
        {
          "internalType": "string",
          "name": "",
          "type": "string"
        }
      ],
      "stateMutability": "view",
      "type": "function",
      "constant": true
    },
    {
      "inputs": [],
      "name": "dummyFunction",
      "outputs": [],
      "stateMutability": "nonpayable",
      "type": "function"
    },
    {
      "inputs": [],
      "name": "emitOwnerAndSender",
      "outputs": [],
      "stateMutability": "nonpayable",
      "type": "function"
    },
    {
      "inputs": [],
      "name": "ownerAddress",
      "outputs": [
        {
          "internalType": "address",
          "name": "",
          "type": "address"
        },
        {
          "internalType": "address",
          "name": "",
          "type": "address"
        }
      ],
      "stateMutability": "view",
      "type": "function",
      "constant": true
    },
    {
      "inputs": [
        {
          "internalType": "address",
          "name": "to",
          "type": "address"
        },
        {
          "internalType": "string",
          "name": "make",
          "type": "string"
        },
        {
          "internalType": "string",
          "name": "model",
          "type": "string"
        },
        {
          "internalType": "uint256",
          "name": "price",
          "type": "uint256"
        }
      ],
      "name": "mintVehicle",
      "outputs": [],
      "stateMutability": "nonpayable",
      "type": "function"
    },
    {
      "inputs": [
        {
          "internalType": "uint256",
          "name": "tokenId",
          "type": "uint256"
        },
        {
          "internalType": "uint256",
          "name": "startTime",
          "type": "uint256"
        },
        {
          "internalType": "uint256",
          "name": "endTime",
          "type": "uint256"
        }
      ],
      "name": "rentVehicle",
      "outputs": [],
      "stateMutability": "nonpayable",
      "type": "function"
    },
    {
      "inputs": [
        {
          "internalType": "uint256",
          "name": "tokenId",
          "type": "uint256"
        }
      ],
      "name": "endRental",
      "outputs": [],
      "stateMutability": "nonpayable",
      "type": "function"
    },
    {
      "inputs": [
        {
          "internalType": "uint256",
          "name": "tokenId",
          "type": "uint256"
        }
      ],
      "name": "getVehicleData",
      "outputs": [
        {
          "internalType": "string",
          "name": "make",
          "type": "string"
        },
        {
          "internalType": "string",
          "name": "model",
          "type": "string"
        },
        {
          "internalType": "uint256",
          "name": "price",
          "type": "uint256"
        },
        {
          "internalType": "uint256",
          "name": "startTime",
          "type": "uint256"
        },
        {
          "internalType": "uint256",
          "name": "endTime",
          "type": "uint256"
        }
      ],
      "stateMutability": "view",
      "type": "function",
      "constant": true
    }
  ],
  "bytecode": "0x608060405260006005553480156200001657600080fd5b506040516200401e3803806200401e83398181016040528101906200003c9190620002ec565b806200004e816200007660201b60201c565b506200006f620000636200008b60201b60201c565b6200009360201b60201c565b506200066f565b806002908162000087919062000588565b5050565b600033905090565b6000600360009054906101000a900473ffffffffffffffffffffffffffffffffffffffff16905081600360006101000a81548173ffffffffffffffffffffffffffffffffffffffff021916908373ffffffffffffffffffffffffffffffffffffffff1602179055508173ffffffffffffffffffffffffffffffffffffffff168173ffffffffffffffffffffffffffffffffffffffff167f8be0079c531659141344cd1fd0a4f28419497f9722a3daafe3b4186f6b6457e060405160405180910390a35050565b6000604051905090565b600080fd5b600080fd5b600080fd5b600080fd5b6000601f19601f8301169050919050565b7f4e487b7100000000000000000000000000000000000000000000000000000000600052604160045260246000fd5b620001c28262000177565b810181811067ffffffffffffffff82111715620001e457620001e362000188565b5b80604052505050565b6000620001f962000159565b9050620002078282620001b7565b919050565b600067ffffffffffffffff8211156200022a576200022962000188565b5b620002358262000177565b9050602081019050919050565b60005b838110156200026257808201518184015260208101905062000245565b60008484015250505050565b6000620002856200027f846200020c565b620001ed565b905082815260208101848484011115620002a457620002a362000172565b5b620002b184828562000242565b509392505050565b600082601f830112620002d157620002d06200016d565b5b8151620002e38482602086016200026e565b91505092915050565b60006020828403121562000305576200030462000163565b5b600082015167ffffffffffffffff81111562000326576200032562000168565b5b6200033484828501620002b9565b91505092915050565b600081519050919050565b7f4e487b7100000000000000000000000000000000000000000000000000000000600052602260045260246000fd5b600060028204905060018216806200039057607f821691505b602082108103620003a657620003a562000348565b5b50919050565b60008190508160005260206000209050919050565b60006020601f8301049050919050565b600082821b905092915050565b600060088302620004107fffffffffffffffffffffffffffffffffffffffffffffffffffffffffffffffff82620003d1565b6200041c8683620003d1565b95508019841693508086168417925050509392505050565b6000819050919050565b6000819050919050565b600062000469620004636200045d8462000434565b6200043e565b62000434565b9050919050565b6000819050919050565b620004858362000448565b6200049d620004948262000470565b848454620003de565b825550505050565b600090565b620004b4620004a5565b620004c18184846200047a565b505050565b5b81811015620004e957620004dd600082620004aa565b600181019050620004c7565b5050565b601f82111562000538576200050281620003ac565b6200050d84620003c1565b810160208510156200051d578190505b620005356200052c85620003c1565b830182620004c6565b50505b505050565b600082821c905092915050565b60006200055d600019846008026200053d565b1980831691505092915050565b60006200057883836200054a565b9150826002028217905092915050565b62000593826200033d565b67ffffffffffffffff811115620005af57620005ae62000188565b5b620005bb825462000377565b620005c8828285620004ed565b600060209050601f831160018114620006005760008415620005eb578287015190505b620005f785826200056a565b86555062000667565b601f1984166200061086620003ac565b60005b828110156200063a5784890151825560018201915060208501945060208101905062000613565b868310156200065a578489015162000656601f8916826200054a565b8355505b6001600288020188555050505b505050505050565b61399f806200067f6000396000f3fe608060405234801561001057600080fd5b50600436106101155760003560e01c80638f84aa09116100a2578063e0186e8f11610071578063e0186e8f146102cf578063e985e9c5146102eb578063f242432a1461031b578063f2fde38b14610337578063f3f2994e1461035357610115565b80638f84aa091461024457806397491d6f14610263578063a22cb4651461027f578063c8920eb11461029b57610115565b8063390e8a77116100e9578063390e8a77146101c65780634e1273f4146101e2578063715018a6146102125780637ec9d81f1461021c5780638da5cb5b1461022657610115565b8062fdd58e1461011a57806301ffc9a71461014a5780630e89341c1461017a5780632eb2c2d6146101aa575b600080fd5b610134600480360381019061012f9190611fb2565b61035d565b6040516101419190612001565b60405180910390f35b610164600480360381019061015f9190612074565b610425565b60405161017191906120bc565b60405180910390f35b610194600480360381019061018f91906120d7565b610507565b6040516101a19190612194565b60405180910390f35b6101c460048036038101906101bf91906123b3565b61059b565b005b6101e060048036038101906101db9190612482565b61063c565b005b6101fc60048036038101906101f79190612598565b6107a4565b60405161020991906126ce565b60405180910390f35b61021a6108bd565b005b6102246108d1565b005b61022e61090a565b60405161023b91906126ff565b60405180910390f35b61024c610934565b60405161025a92919061271a565b60405180910390f35b61027d600480360381019061027891906120d7565b610948565b005b6102996004803603810190610294919061276f565b610b56565b005b6102b560048036038101906102b091906120d7565b610b6c565b6040516102c69594939291906127af565b60405180910390f35b6102e960048036038101906102e491906128b1565b610ccd565b005b61030560048036038101906103009190612950565b610e06565b60405161031291906120bc565b60405180910390f35b61033560048036038101906103309190612990565b610e9a565b005b610351600480360381019061034c9190612a27565b610f3b565b005b61035b610fbe565b005b60008073ffffffffffffffffffffffffffffffffffffffff168373ffffffffffffffffffffffffffffffffffffffff16036103cd576040517f08c379a00000000000000000000000000000000000000000000000000000000081526004016103c490612ac6565b60405180910390fd5b60008083815260200190815260200160002060008473ffffffffffffffffffffffffffffffffffffffff1673ffffffffffffffffffffffffffffffffffffffff16815260200190815260200160002054905092915050565b60007fd9b67a26000000000000000000000000000000000000000000000000000000007bffffffffffffffffffffffffffffffffffffffffffffffffffffffff1916827bffffffffffffffffffffffffffffffffffffffffffffffffffffffff191614806104f057507f0e89341c000000000000000000000000000000000000000000000000000000007bffffffffffffffffffffffffffffffffffffffffffffffffffffffff1916827bffffffffffffffffffffffffffffffffffffffffffffffffffffffff1916145b8061050057506104ff82611021565b5b9050919050565b60606002805461051690612b15565b80601f016020809104026020016040519081016040528092919081815260200182805461054290612b15565b801561058f5780601f106105645761010080835404028352916020019161058f565b820191906000526020600020905b81548152906001019060200180831161057257829003601f168201915b50505050509050919050565b6105a361108b565b73ffffffffffffffffffffffffffffffffffffffff168573ffffffffffffffffffffffffffffffffffffffff1614806105e957506105e8856105e361108b565b610e06565b5b610628576040517f08c379a000000000000000000000000000000000000000000000000000000000815260040161061f90612bb8565b60405180910390fd5b6106358585858585611093565b5050505050565b600161067e6004600086815260200190815260200160002060050160009054906101000a900473ffffffffffffffffffffffffffffffffffffffff168561035d565b146106be576040517f08c379a00000000000000000000000000000000000000000000000000000000081526004016106b590612c4a565b60405180910390fd5b81600460008581526020019081526020016000206004015410610716576040517f08c379a000000000000000000000000000000000000000000000000000000000815260040161070d90612cdc565b60405180910390fd5b6107696004600085815260200190815260200160002060050160009054906101000a900473ffffffffffffffffffffffffffffffffffffffff163385600160405180602001604052806000815250610e9a565b816004600085815260200190815260200160002060030181905550806004600085815260200190815260200160002060040181905550505050565b606081518351146107ea576040517f08c379a00000000000000000000000000000000000000000000000000000000081526004016107e190612d6e565b60405180910390fd5b6000835167ffffffffffffffff811115610807576108066121bb565b5b6040519080825280602002602001820160405280156108355781602001602082028036833780820191505090505b50905060005b84518110156108b25761088285828151811061085a57610859612d8e565b5b602002602001015185838151811061087557610874612d8e565b5b602002602001015161035d565b82828151811061089557610894612d8e565b5b602002602001018181525050806108ab90612dec565b905061083b565b508091505092915050565b6108c56113b4565b6108cf6000611432565b565b7f5ee989b429a5ba59d47a51f696c162d0b9d8496e76e883e23a9070b29206a717336040516109009190612e80565b60405180910390a1565b6000600360009054906101000a900473ffffffffffffffffffffffffffffffffffffffff16905090565b60008061093f61090a565b33915091509091565b804260046000838152602001908152602001600020600401541115801561097857506001610976338361035d565b145b15610a42576109d0336004600084815260200190815260200160002060050160009054906101000a900473ffffffffffffffffffffffffffffffffffffffff1683600160405180602001604052806000815250610e9a565b60006004600083815260200190815260200160002060030181905550600060046000838152602001908152602001600020600401819055507ff9bbd47d9659083aa5b016ffd346aca413549aace523513f610200aeed1e1dd48133604051610a39929190612eae565b60405180910390a15b6001610a4e338461035d565b14610a8e576040517f08c379a0000000000000000000000000000000000000000000000000000000008152600401610a8590612f23565b60405180910390fd5b610ae1336004600085815260200190815260200160002060050160009054906101000a900473ffffffffffffffffffffffffffffffffffffffff1684600160405180602001604052806000815250610e9a565b60006004600084815260200190815260200160002060030181905550600060046000848152602001908152602001600020600401819055507ff9bbd47d9659083aa5b016ffd346aca413549aace523513f610200aeed1e1dd48233604051610b4a929190612eae565b60405180910390a15050565b610b68610b6161108b565b83836114f8565b5050565b6060806000806000806004600088815260200190815260200160002090508060000181600101826002015483600301548460040154848054610bad90612b15565b80601f0160208091040260200160405190810160405280929190818152602001828054610bd990612b15565b8015610c265780601f10610bfb57610100808354040283529160200191610c26565b820191906000526020600020905b815481529060010190602001808311610c0957829003601f168201915b50505050509450838054610c3990612b15565b80601f0160208091040260200160405190810160405280929190818152602001828054610c6590612b15565b8015610cb25780601f10610c8757610100808354040283529160200191610cb2565b820191906000526020600020905b815481529060010190602001808311610c9557829003601f168201915b50505050509350955095509550955095505091939590929450565b610cd56113b4565b610cf384600554600160405180602001604052806000815250611664565b6040518060c001604052808481526020018381526020018281526020016000815260200160008152602001610d2661090a565b73ffffffffffffffffffffffffffffffffffffffff168152506004600060055481526020019081526020016000206000820151816000019081610d6991906130ef565b506020820151816001019081610d7f91906130ef565b5060408201518160020155606082015181600301556080820151816004015560a08201518160050160006101000a81548173ffffffffffffffffffffffffffffffffffffffff021916908373ffffffffffffffffffffffffffffffffffffffff16021790555090505060056000815480929190610dfb90612dec565b919050555050505050565b6000600160008473ffffffffffffffffffffffffffffffffffffffff1673ffffffffffffffffffffffffffffffffffffffff16815260200190815260200160002060008373ffffffffffffffffffffffffffffffffffffffff1673ffffffffffffffffffffffffffffffffffffffff16815260200190815260200160002060009054906101000a900460ff16905092915050565b610ea261108b565b73ffffffffffffffffffffffffffffffffffffffff168573ffffffffffffffffffffffffffffffffffffffff161480610ee85750610ee785610ee261108b565b610e06565b5b610f27576040517f08c379a0000000000000000000000000000000000000000000000000000000008152600401610f1e90612bb8565b60405180910390fd5b610f348585858585611814565b5050505050565b610f436113b4565b600073ffffffffffffffffffffffffffffffffffffffff168173ffffffffffffffffffffffffffffffffffffffff1603610fb2576040517f08c379a0000000000000000000000000000000000000000000000000000000008152600401610fa990613233565b60405180910390fd5b610fbb81611432565b50565b3373ffffffffffffffffffffffffffffffffffffffff16610fdd61090a565b73ffffffffffffffffffffffffffffffffffffffff167fb723a148c53b3b40779c318aaf4ff73bb2802621afbabea9960a30e2dc1c556960405160405180910390a3565b60007f01ffc9a7000000000000000000000000000000000000000000000000000000007bffffffffffffffffffffffffffffffffffffffffffffffffffffffff1916827bffffffffffffffffffffffffffffffffffffffffffffffffffffffff1916149050919050565b600033905090565b81518351146110d7576040517f08c379a00000000000000000000000000000000000000000000000000000000081526004016110ce906132c5565b60405180910390fd5b600073ffffffffffffffffffffffffffffffffffffffff168473ffffffffffffffffffffffffffffffffffffffff1603611146576040517f08c379a000000000000000000000000000000000000000000000000000000000815260040161113d90613357565b60405180910390fd5b600061115061108b565b9050611160818787878787611aaf565b60005b845181101561131157600085828151811061118157611180612d8e565b5b6020026020010151905060008583815181106111a05761119f612d8e565b5b60200260200101519050600080600084815260200190815260200160002060008b73ffffffffffffffffffffffffffffffffffffffff1673ffffffffffffffffffffffffffffffffffffffff16815260200190815260200160002054905081811015611241576040517f08c379a0000000000000000000000000000000000000000000000000000000008152600401611238906133e9565b60405180910390fd5b81810360008085815260200190815260200160002060008c73ffffffffffffffffffffffffffffffffffffffff1673ffffffffffffffffffffffffffffffffffffffff168152602001908152602001600020819055508160008085815260200190815260200160002060008b73ffffffffffffffffffffffffffffffffffffffff1673ffffffffffffffffffffffffffffffffffffffff16815260200190815260200160002060008282546112f69190613409565b925050819055505050508061130a90612dec565b9050611163565b508473ffffffffffffffffffffffffffffffffffffffff168673ffffffffffffffffffffffffffffffffffffffff168273ffffffffffffffffffffffffffffffffffffffff167f4a39dc06d4c0dbc64b70af90fd698a233a518aa5d07e595d983b8c0526c8f7fb878760405161138892919061343d565b60405180910390a461139e818787878787611ab7565b6113ac818787878787611abf565b505050505050565b6113bc61108b565b73ffffffffffffffffffffffffffffffffffffffff166113da61090a565b73ffffffffffffffffffffffffffffffffffffffff1614611430576040517f08c379a0000000000000000000000000000000000000000000000000000000008152600401611427906134c0565b60405180910390fd5b565b6000600360009054906101000a900473ffffffffffffffffffffffffffffffffffffffff16905081600360006101000a81548173ffffffffffffffffffffffffffffffffffffffff021916908373ffffffffffffffffffffffffffffffffffffffff1602179055508173ffffffffffffffffffffffffffffffffffffffff168173ffffffffffffffffffffffffffffffffffffffff167f8be0079c531659141344cd1fd0a4f28419497f9722a3daafe3b4186f6b6457e060405160405180910390a35050565b8173ffffffffffffffffffffffffffffffffffffffff168373ffffffffffffffffffffffffffffffffffffffff1603611566576040517f08c379a000000000000000000000000000000000000000000000000000000000815260040161155d90613552565b60405180910390fd5b80600160008573ffffffffffffffffffffffffffffffffffffffff1673ffffffffffffffffffffffffffffffffffffffff16815260200190815260200160002060008473ffffffffffffffffffffffffffffffffffffffff1673ffffffffffffffffffffffffffffffffffffffff16815260200190815260200160002060006101000a81548160ff0219169083151502179055508173ffffffffffffffffffffffffffffffffffffffff168373ffffffffffffffffffffffffffffffffffffffff167f17307eab39ab6107e8899845ad3d59bd9653f200f220920489ca2b5937696c318360405161165791906120bc565b60405180910390a3505050565b600073ffffffffffffffffffffffffffffffffffffffff168473ffffffffffffffffffffffffffffffffffffffff16036116d3576040517f08c379a00000000000000000000000000000000000000000000000000000000081526004016116ca906135e4565b60405180910390fd5b60006116dd61108b565b905060006116ea85611c96565b905060006116f785611c96565b905061170883600089858589611aaf565b8460008088815260200190815260200160002060008973ffffffffffffffffffffffffffffffffffffffff1673ffffffffffffffffffffffffffffffffffffffff16815260200190815260200160002060008282546117679190613409565b925050819055508673ffffffffffffffffffffffffffffffffffffffff16600073ffffffffffffffffffffffffffffffffffffffff168473ffffffffffffffffffffffffffffffffffffffff167fc3d58168c5ae7397731d063d5bbf3d657854427343f4c083240f7aacaa2d0f6289896040516117e5929190613604565b60405180910390a46117fc83600089858589611ab7565b61180b83600089898989611d10565b50505050505050565b600073ffffffffffffffffffffffffffffffffffffffff168473ffffffffffffffffffffffffffffffffffffffff1603611883576040517f08c379a000000000000000000000000000000000000000000000000000000000815260040161187a90613357565b60405180910390fd5b600061188d61108b565b9050600061189a85611c96565b905060006118a785611c96565b90506118b7838989858589611aaf565b600080600088815260200190815260200160002060008a73ffffffffffffffffffffffffffffffffffffffff1673ffffffffffffffffffffffffffffffffffffffff1681526020019081526020016000205490508581101561194e576040517f08c379a0000000000000000000000000000000000000000000000000000000008152600401611945906133e9565b60405180910390fd5b85810360008089815260200190815260200160002060008b73ffffffffffffffffffffffffffffffffffffffff1673ffffffffffffffffffffffffffffffffffffffff168152602001908152602001600020819055508560008089815260200190815260200160002060008a73ffffffffffffffffffffffffffffffffffffffff1673ffffffffffffffffffffffffffffffffffffffff1681526020019081526020016000206000828254611a039190613409565b925050819055508773ffffffffffffffffffffffffffffffffffffffff168973ffffffffffffffffffffffffffffffffffffffff168573ffffffffffffffffffffffffffffffffffffffff167fc3d58168c5ae7397731d063d5bbf3d657854427343f4c083240f7aacaa2d0f628a8a604051611a80929190613604565b60405180910390a4611a96848a8a86868a611ab7565b611aa4848a8a8a8a8a611d10565b505050505050505050565b505050505050565b505050505050565b611ade8473ffffffffffffffffffffffffffffffffffffffff16611ee7565b15611c8e578373ffffffffffffffffffffffffffffffffffffffff1663bc197c8187878686866040518663ffffffff1660e01b8152600401611b24959493929190613682565b6020604051808303816000875af1925050508015611b6057506040513d601f19601f82011682018060405250810190611b5d91906136ff565b60015b611c0557611b6c613739565b806308c379a003611bc85750611b8061375b565b80611b8b5750611bca565b806040517f08c379a0000000000000000000000000000000000000000000000000000000008152600401611bbf9190612194565b60405180910390fd5b505b6040517f08c379a0000000000000000000000000000000000000000000000000000000008152600401611bfc9061385d565b60405180910390fd5b63bc197c8160e01b7bffffffffffffffffffffffffffffffffffffffffffffffffffffffff1916817bffffffffffffffffffffffffffffffffffffffffffffffffffffffff191614611c8c576040517f08c379a0000000000000000000000000000000000000000000000000000000008152600401611c83906138ef565b60405180910390fd5b505b505050505050565b60606000600167ffffffffffffffff811115611cb557611cb46121bb565b5b604051908082528060200260200182016040528015611ce35781602001602082028036833780820191505090505b5090508281600081518110611cfb57611cfa612d8e565b5b60200260200101818152505080915050919050565b611d2f8473ffffffffffffffffffffffffffffffffffffffff16611ee7565b15611edf578373ffffffffffffffffffffffffffffffffffffffff1663f23a6e6187878686866040518663ffffffff1660e01b8152600401611d7595949392919061390f565b6020604051808303816000875af1925050508015611db157506040513d601f19601f82011682018060405250810190611dae91906136ff565b60015b611e5657611dbd613739565b806308c379a003611e195750611dd161375b565b80611ddc5750611e1b565b806040517f08c379a0000000000000000000000000000000000000000000000000000000008152600401611e109190612194565b60405180910390fd5b505b6040517f08c379a0000000000000000000000000000000000000000000000000000000008152600401611e4d9061385d565b60405180910390fd5b63f23a6e6160e01b7bffffffffffffffffffffffffffffffffffffffffffffffffffffffff1916817bffffffffffffffffffffffffffffffffffffffffffffffffffffffff191614611edd576040517f08c379a0000000000000000000000000000000000000000000000000000000008152600401611ed4906138ef565b60405180910390fd5b505b505050505050565b6000808273ffffffffffffffffffffffffffffffffffffffff163b119050919050565b6000604051905090565b600080fd5b600080fd5b600073ffffffffffffffffffffffffffffffffffffffff82169050919050565b6000611f4982611f1e565b9050919050565b611f5981611f3e565b8114611f6457600080fd5b50565b600081359050611f7681611f50565b92915050565b6000819050919050565b611f8f81611f7c565b8114611f9a57600080fd5b50565b600081359050611fac81611f86565b92915050565b60008060408385031215611fc957611fc8611f14565b5b6000611fd785828601611f67565b9250506020611fe885828601611f9d565b9150509250929050565b611ffb81611f7c565b82525050565b60006020820190506120166000830184611ff2565b92915050565b60007fffffffff0000000000000000000000000000000000000000000000000000000082169050919050565b6120518161201c565b811461205c57600080fd5b50565b60008135905061206e81612048565b92915050565b60006020828403121561208a57612089611f14565b5b60006120988482850161205f565b91505092915050565b60008115159050919050565b6120b6816120a1565b82525050565b60006020820190506120d160008301846120ad565b92915050565b6000602082840312156120ed576120ec611f14565b5b60006120fb84828501611f9d565b91505092915050565b600081519050919050565b600082825260208201905092915050565b60005b8381101561213e578082015181840152602081019050612123565b60008484015250505050565b6000601f19601f8301169050919050565b600061216682612104565b612170818561210f565b9350612180818560208601612120565b6121898161214a565b840191505092915050565b600060208201905081810360008301526121ae818461215b565b905092915050565b600080fd5b7f4e487b7100000000000000000000000000000000000000000000000000000000600052604160045260246000fd5b6121f38261214a565b810181811067ffffffffffffffff82111715612212576122116121bb565b5b80604052505050565b6000612225611f0a565b905061223182826121ea565b919050565b600067ffffffffffffffff821115612251576122506121bb565b5b602082029050602081019050919050565b600080fd5b600061227a61227584612236565b61221b565b9050808382526020820190506020840283018581111561229d5761229c612262565b5b835b818110156122c657806122b28882611f9d565b84526020840193505060208101905061229f565b5050509392505050565b600082601f8301126122e5576122e46121b6565b5b81356122f5848260208601612267565b91505092915050565b600080fd5b600067ffffffffffffffff82111561231e5761231d6121bb565b5b6123278261214a565b9050602081019050919050565b82818337600083830152505050565b600061235661235184612303565b61221b565b905082815260208101848484011115612372576123716122fe565b5b61237d848285612334565b509392505050565b600082601f83011261239a576123996121b6565b5b81356123aa848260208601612343565b91505092915050565b600080600080600060a086880312156123cf576123ce611f14565b5b60006123dd88828901611f67565b95505060206123ee88828901611f67565b945050604086013567ffffffffffffffff81111561240f5761240e611f19565b5b61241b888289016122d0565b935050606086013567ffffffffffffffff81111561243c5761243b611f19565b5b612448888289016122d0565b925050608086013567ffffffffffffffff81111561246957612468611f19565b5b61247588828901612385565b9150509295509295909350565b60008060006060848603121561249b5761249a611f14565b5b60006124a986828701611f9d565b93505060206124ba86828701611f9d565b92505060406124cb86828701611f9d565b9150509250925092565b600067ffffffffffffffff8211156124f0576124ef6121bb565b5b602082029050602081019050919050565b600061251461250f846124d5565b61221b565b9050808382526020820190506020840283018581111561253757612536612262565b5b835b81811015612560578061254c8882611f67565b845260208401935050602081019050612539565b5050509392505050565b600082601f83011261257f5761257e6121b6565b5b813561258f848260208601612501565b91505092915050565b600080604083850312156125af576125ae611f14565b5b600083013567ffffffffffffffff8111156125cd576125cc611f19565b5b6125d98582860161256a565b925050602083013567ffffffffffffffff8111156125fa576125f9611f19565b5b612606858286016122d0565b9150509250929050565b600081519050919050565b600082825260208201905092915050565b6000819050602082019050919050565b61264581611f7c565b82525050565b6000612657838361263c565b60208301905092915050565b6000602082019050919050565b600061267b82612610565b612685818561261b565b93506126908361262c565b8060005b838110156126c15781516126a8888261264b565b97506126b383612663565b925050600181019050612694565b5085935050505092915050565b600060208201905081810360008301526126e88184612670565b905092915050565b6126f981611f3e565b82525050565b600060208201905061271460008301846126f0565b92915050565b600060408201905061272f60008301856126f0565b61273c60208301846126f0565b9392505050565b61274c816120a1565b811461275757600080fd5b50565b60008135905061276981612743565b92915050565b6000806040838503121561278657612785611f14565b5b600061279485828601611f67565b92505060206127a58582860161275a565b9150509250929050565b600060a08201905081810360008301526127c9818861215b565b905081810360208301526127dd818761215b565b90506127ec6040830186611ff2565b6127f96060830185611ff2565b6128066080830184611ff2565b9695505050505050565b600067ffffffffffffffff82111561282b5761282a6121bb565b5b6128348261214a565b9050602081019050919050565b600061285461284f84612810565b61221b565b9050828152602081018484840111156128705761286f6122fe565b5b61287b848285612334565b509392505050565b600082601f830112612898576128976121b6565b5b81356128a8848260208601612841565b91505092915050565b600080600080608085870312156128cb576128ca611f14565b5b60006128d987828801611f67565b945050602085013567ffffffffffffffff8111156128fa576128f9611f19565b5b61290687828801612883565b935050604085013567ffffffffffffffff81111561292757612926611f19565b5b61293387828801612883565b925050606061294487828801611f9d565b91505092959194509250565b6000806040838503121561296757612966611f14565b5b600061297585828601611f67565b925050602061298685828601611f67565b9150509250929050565b600080600080600060a086880312156129ac576129ab611f14565b5b60006129ba88828901611f67565b95505060206129cb88828901611f67565b94505060406129dc88828901611f9d565b93505060606129ed88828901611f9d565b925050608086013567ffffffffffffffff811115612a0e57612a0d611f19565b5b612a1a88828901612385565b9150509295509295909350565b600060208284031215612a3d57612a3c611f14565b5b6000612a4b84828501611f67565b91505092915050565b7f455243313135353a2061646472657373207a65726f206973206e6f742061207660008201527f616c6964206f776e657200000000000000000000000000000000000000000000602082015250565b6000612ab0602a8361210f565b9150612abb82612a54565b604082019050919050565b60006020820190508181036000830152612adf81612aa3565b9050919050565b7f4e487b7100000000000000000000000000000000000000000000000000000000600052602260045260246000fd5b60006002820490506001821680612b2d57607f821691505b602082108103612b4057612b3f612ae6565b5b50919050565b7f455243313135353a2063616c6c6572206973206e6f7420746f6b656e206f776e60008201527f6572206f7220617070726f766564000000000000000000000000000000000000602082015250565b6000612ba2602e8361210f565b9150612bad82612b46565b604082019050919050565b60006020820190508181036000830152612bd181612b95565b9050919050565b7f5468652061707020646f6573206e6f74206f776e20746869732076656869636c60008201527f6500000000000000000000000000000000000000000000000000000000000000602082015250565b6000612c3460218361210f565b9150612c3f82612bd8565b604082019050919050565b60006020820190508181036000830152612c6381612c27565b9050919050565b7f56656869636c6520697320616c72656164792072656e74656420647572696e6760008201527f20746869732074696d6500000000000000000000000000000000000000000000602082015250565b6000612cc6602a8361210f565b9150612cd182612c6a565b604082019050919050565b60006020820190508181036000830152612cf581612cb9565b9050919050565b7f455243313135353a206163636f756e747320616e6420696473206c656e67746860008201527f206d69736d617463680000000000000000000000000000000000000000000000602082015250565b6000612d5860298361210f565b9150612d6382612cfc565b604082019050919050565b60006020820190508181036000830152612d8781612d4b565b9050919050565b7f4e487b7100000000000000000000000000000000000000000000000000000000600052603260045260246000fd5b7f4e487b7100000000000000000000000000000000000000000000000000000000600052601160045260246000fd5b6000612df782611f7c565b91507fffffffffffffffffffffffffffffffffffffffffffffffffffffffffffffffff8203612e2957612e28612dbd565b5b600182019050919050565b7f44756d6d792066756e6374696f6e2063616c6c65640000000000000000000000600082015250565b6000612e6a60158361210f565b9150612e7582612e34565b602082019050919050565b60006040820190508181036000830152612e9981612e5d565b9050612ea860208301846126f0565b92915050565b6000604082019050612ec36000830185611ff2565b612ed060208301846126f0565b9392505050565b7f596f7520646f206e6f74206f776e20746869732076656869636c650000000000600082015250565b6000612f0d601b8361210f565b9150612f1882612ed7565b602082019050919050565b60006020820190508181036000830152612f3c81612f00565b9050919050565b60008190508160005260206000209050919050565b60006020601f8301049050919050565b600082821b905092915050565b600060088302612fa57fffffffffffffffffffffffffffffffffffffffffffffffffffffffffffffffff82612f68565b612faf8683612f68565b95508019841693508086168417925050509392505050565b6000819050919050565b6000612fec612fe7612fe284611f7c565b612fc7565b611f7c565b9050919050565b6000819050919050565b61300683612fd1565b61301a61301282612ff3565b848454612f75565b825550505050565b600090565b61302f613022565b61303a818484612ffd565b505050565b5b8181101561305e57613053600082613027565b600181019050613040565b5050565b601f8211156130a35761307481612f43565b61307d84612f58565b8101602085101561308c578190505b6130a061309885612f58565b83018261303f565b50505b505050565b600082821c905092915050565b60006130c6600019846008026130a8565b1980831691505092915050565b60006130df83836130b5565b9150826002028217905092915050565b6130f882612104565b67ffffffffffffffff811115613111576131106121bb565b5b61311b8254612b15565b613126828285613062565b600060209050601f8311600181146131595760008415613147578287015190505b61315185826130d3565b8655506131b9565b601f19841661316786612f43565b60005b8281101561318f5784890151825560018201915060208501945060208101905061316a565b868310156131ac57848901516131a8601f8916826130b5565b8355505b6001600288020188555050505b505050505050565b7f4f776e61626c653a206e6577206f776e657220697320746865207a65726f206160008201527f6464726573730000000000000000000000000000000000000000000000000000602082015250565b600061321d60268361210f565b9150613228826131c1565b604082019050919050565b6000602082019050818103600083015261324c81613210565b9050919050565b7f455243313135353a2069647320616e6420616d6f756e7473206c656e6774682060008201527f6d69736d61746368000000000000000000000000000000000000000000000000602082015250565b60006132af60288361210f565b91506132ba82613253565b604082019050919050565b600060208201905081810360008301526132de816132a2565b9050919050565b7f455243313135353a207472616e7366657220746f20746865207a65726f20616460008201527f6472657373000000000000000000000000000000000000000000000000000000602082015250565b600061334160258361210f565b915061334c826132e5565b604082019050919050565b6000602082019050818103600083015261337081613334565b9050919050565b7f455243313135353a20696e73756666696369656e742062616c616e636520666f60008201527f72207472616e7366657200000000000000000000000000000000000000000000602082015250565b60006133d3602a8361210f565b91506133de82613377565b604082019050919050565b60006020820190508181036000830152613402816133c6565b9050919050565b600061341482611f7c565b915061341f83611f7c565b925082820190508082111561343757613436612dbd565b5b92915050565b600060408201905081810360008301526134578185612670565b9050818103602083015261346b8184612670565b90509392505050565b7f4f776e61626c653a2063616c6c6572206973206e6f7420746865206f776e6572600082015250565b60006134aa60208361210f565b91506134b582613474565b602082019050919050565b600060208201905081810360008301526134d98161349d565b9050919050565b7f455243313135353a2073657474696e6720617070726f76616c2073746174757360008201527f20666f722073656c660000000000000000000000000000000000000000000000602082015250565b600061353c60298361210f565b9150613547826134e0565b604082019050919050565b6000602082019050818103600083015261356b8161352f565b9050919050565b7f455243313135353a206d696e7420746f20746865207a65726f2061646472657360008201527f7300000000000000000000000000000000000000000000000000000000000000602082015250565b60006135ce60218361210f565b91506135d982613572565b604082019050919050565b600060208201905081810360008301526135fd816135c1565b9050919050565b60006040820190506136196000830185611ff2565b6136266020830184611ff2565b9392505050565b600081519050919050565b600082825260208201905092915050565b60006136548261362d565b61365e8185613638565b935061366e818560208601612120565b6136778161214a565b840191505092915050565b600060a08201905061369760008301886126f0565b6136a460208301876126f0565b81810360408301526136b68186612670565b905081810360608301526136ca8185612670565b905081810360808301526136de8184613649565b90509695505050505050565b6000815190506136f981612048565b92915050565b60006020828403121561371557613714611f14565b5b6000613723848285016136ea565b91505092915050565b60008160e01c9050919050565b600060033d11156137585760046000803e61375560005161372c565b90505b90565b600060443d106137e85761376d611f0a565b60043d036004823e80513d602482011167ffffffffffffffff821117156137955750506137e8565b808201805167ffffffffffffffff8111156137b357505050506137e8565b80602083010160043d0385018111156137d05750505050506137e8565b6137df826020018501866121ea565b82955050505050505b90565b7f455243313135353a207472616e7366657220746f206e6f6e2d4552433131353560008201527f526563656976657220696d706c656d656e746572000000000000000000000000602082015250565b600061384760348361210f565b9150613852826137eb565b604082019050919050565b600060208201905081810360008301526138768161383a565b9050919050565b7f455243313135353a204552433131353552656365697665722072656a6563746560008201527f6420746f6b656e73000000000000000000000000000000000000000000000000602082015250565b60006138d960288361210f565b91506138e48261387d565b604082019050919050565b60006020820190508181036000830152613908816138cc565b9050919050565b600060a08201905061392460008301886126f0565b61393160208301876126f0565b61393e6040830186611ff2565b61394b6060830185611ff2565b818103608083015261395d8184613649565b9050969550505050505056fea2646970667358221220ebacf2c0a6524767816dd025869ecbec5b9499567a142d0a08e748511f39494a64736f6c63430008130033",
  "immutableReferences": {},
  "source": "pragma solidity ^0.8.1;\n\nimport \"@openzeppelin/contracts/token/ERC1155/ERC1155.sol\";\nimport \"@openzeppelin/contracts/access/Ownable.sol\";\n\ncontract ElectricVehicle is ERC1155, Ownable {\n    // Add a constructor with a URI parameter\n    constructor(string memory uri) ERC1155(uri) Ownable() {\n//        owner = msg.sender;\n    }\n\n//    modifier requireContractOwner() {\n//        require(msg.sender == contractOwner, \"Caller is not contract owner\");\n//        _;\n//    }\n\n    struct Vehicle {\n        string make;\n        string model;\n        uint256 price;\n        uint256 startTime;\n        uint256 endTime;\n        address appAddress;\n    }\n\n    mapping(uint256 => Vehicle) private _vehicleData;\n\n    uint256 private _currentTokenId = 0;\n\n    event DebugEvent(string message, address value);\n    function dummyFunction() public {\n        emit DebugEvent(\"Dummy function called\", msg.sender);\n    }\n\n    event OwnerAndSender(address indexed owner, address indexed sender);\n\n    function emitOwnerAndSender() public {\n        emit OwnerAndSender(owner(), msg.sender);\n    }\n    function ownerAddress() public view returns (address, address) {\n        return (owner(), msg.sender);\n    }\n\n//    event VehicleMinted(uint256 tokenId, address caller);\n//    event DebugMintVehicle(address indexed owner, address indexed sender);\n\n    function mintVehicle(\n        address to,\n        string memory make,\n        string memory model,\n        uint256 price\n    ) public onlyOwner {\n//        emit DebugEvent(\"Minting vehicle\", msg.sender);\n//        emit DebugEvent(\"Minting vehicle\", owner());\n//        emit DebugMintVehicle(owner(), owner());\n        _mint(to, _currentTokenId, 1, \"\");\n        _vehicleData[_currentTokenId] = Vehicle(make, model, price, 0, 0, owner());\n        _currentTokenId++;\n    }\n\n\n    function rentVehicle(uint256 tokenId, uint256 startTime, uint256 endTime) public {\n        require(balanceOf(_vehicleData[tokenId].appAddress, tokenId) == 1, \"The app does not own this vehicle\");\n        require(_vehicleData[tokenId].endTime < startTime, \"Vehicle is already rented during this time\");\n\n        // Transfer ownership to the renter\n        safeTransferFrom(_vehicleData[tokenId].appAddress, msg.sender, tokenId, 1, \"\");\n\n        _vehicleData[tokenId].startTime = startTime;\n        _vehicleData[tokenId].endTime = endTime;\n    }\n\n    event RentalEnded(uint256 tokenId, address renter);\n\n    function endRental(uint256 tokenId) public checkRentalStatus(tokenId) {\n        require(balanceOf(msg.sender, tokenId) == 1, \"You do not own this vehicle\");\n\n        // Transfer ownership back to the app\n        safeTransferFrom(msg.sender, _vehicleData[tokenId].appAddress, tokenId, 1, \"\");\n\n        // Reset rental start and end times\n        _vehicleData[tokenId].startTime = 0;\n        _vehicleData[tokenId].endTime = 0;\n\n        emit RentalEnded(tokenId, msg.sender);\n    }\n\n    modifier checkRentalStatus(uint256 tokenId) {\n        if (_vehicleData[tokenId].endTime <= block.timestamp && balanceOf(msg.sender, tokenId) == 1) {\n            // Transfer ownership back to the app\n            safeTransferFrom(msg.sender, _vehicleData[tokenId].appAddress, tokenId, 1, \"\");\n\n            // Reset rental start and end times\n            _vehicleData[tokenId].startTime = 0;\n            _vehicleData[tokenId].endTime = 0;\n\n            emit RentalEnded(tokenId, msg.sender);\n        }\n        _;\n    }\n\n    function getVehicleData(uint256 tokenId)\n    public\n    view\n    returns (\n        string memory make,\n        string memory model,\n        uint256 price,\n        uint256 startTime,\n        uint256 endTime\n    )\n    {\n        Vehicle storage vehicle = _vehicleData[tokenId];\n        return (vehicle.make, vehicle.model, vehicle.price, vehicle.startTime, vehicle.endTime);\n    }\n}\n",
  "sourcePath": "/Users/acsatlos/WebstormProjects/ElectricVehicleSharing/smart-contract/contracts/ElectricVehicle.sol",
  "compiler": {
    "name": "solc",
    "version": "0.8.19+commit.7dd6d404.Emscripten.clang"
  },
  "schemaVersion": "3.4.13",
  "updatedAt": "2023-05-12T22:39:48.088Z",
  "networkType": "ethereum",
  "devdoc": {
    "events": {
      "ApprovalForAll(address,address,bool)": {
        "details": "Emitted when `account` grants or revokes permission to `operator` to transfer their tokens, according to `approved`."
      },
      "TransferBatch(address,address,address,uint256[],uint256[])": {
        "details": "Equivalent to multiple {TransferSingle} events, where `operator`, `from` and `to` are the same for all transfers."
      },
      "TransferSingle(address,address,address,uint256,uint256)": {
        "details": "Emitted when `value` tokens of token type `id` are transferred from `from` to `to` by `operator`."
      },
      "URI(string,uint256)": {
        "details": "Emitted when the URI for token type `id` changes to `value`, if it is a non-programmatic URI. If an {URI} event was emitted for `id`, the standard https://eips.ethereum.org/EIPS/eip-1155#metadata-extensions[guarantees] that `value` will equal the value returned by {IERC1155MetadataURI-uri}."
      }
    },
    "kind": "dev",
    "methods": {
      "balanceOf(address,uint256)": {
        "details": "See {IERC1155-balanceOf}. Requirements: - `account` cannot be the zero address."
      },
      "balanceOfBatch(address[],uint256[])": {
        "details": "See {IERC1155-balanceOfBatch}. Requirements: - `accounts` and `ids` must have the same length."
      },
      "isApprovedForAll(address,address)": {
        "details": "See {IERC1155-isApprovedForAll}."
      },
      "owner()": {
        "details": "Returns the address of the current owner."
      },
      "renounceOwnership()": {
        "details": "Leaves the contract without owner. It will not be possible to call `onlyOwner` functions anymore. Can only be called by the current owner. NOTE: Renouncing ownership will leave the contract without an owner, thereby removing any functionality that is only available to the owner."
      },
      "safeBatchTransferFrom(address,address,uint256[],uint256[],bytes)": {
        "details": "See {IERC1155-safeBatchTransferFrom}."
      },
      "safeTransferFrom(address,address,uint256,uint256,bytes)": {
        "details": "See {IERC1155-safeTransferFrom}."
      },
      "setApprovalForAll(address,bool)": {
        "details": "See {IERC1155-setApprovalForAll}."
      },
      "supportsInterface(bytes4)": {
        "details": "See {IERC165-supportsInterface}."
      },
      "transferOwnership(address)": {
        "details": "Transfers ownership of the contract to a new account (`newOwner`). Can only be called by the current owner."
      },
      "uri(uint256)": {
        "details": "See {IERC1155MetadataURI-uri}. This implementation returns the same URI for *all* token types. It relies on the token type ID substitution mechanism https://eips.ethereum.org/EIPS/eip-1155#metadata[defined in the EIP]. Clients calling this function must replace the `\\{id\\}` substring with the actual token type ID."
      }
    },
    "version": 1
  },
  "userdoc": {
    "kind": "user",
    "methods": {},
    "version": 1
  }
}