{
  "contractName": "ElectricVehicle",
  "abi": [
    {
      "inputs": [
        {
          "internalType": "string",
          "name": "uri",
          "type": "string"
        }
      ],
      "stateMutability": "nonpayable",
      "type": "constructor"
    },
    {
      "anonymous": false,
      "inputs": [
        {
          "indexed": true,
          "internalType": "address",
          "name": "account",
          "type": "address"
        },
        {
          "indexed": true,
          "internalType": "address",
          "name": "operator",
          "type": "address"
        },
        {
          "indexed": false,
          "internalType": "bool",
          "name": "approved",
          "type": "bool"
        }
      ],
      "name": "ApprovalForAll",
      "type": "event"
    },
    {
      "anonymous": false,
      "inputs": [
        {
          "indexed": true,
          "internalType": "address",
          "name": "previousOwner",
          "type": "address"
        },
        {
          "indexed": true,
          "internalType": "address",
          "name": "newOwner",
          "type": "address"
        }
      ],
      "name": "OwnershipTransferred",
      "type": "event"
    },
    {
      "anonymous": false,
      "inputs": [
        {
          "indexed": false,
          "internalType": "uint256",
          "name": "tokenId",
          "type": "uint256"
        },
        {
          "indexed": false,
          "internalType": "address",
          "name": "renter",
          "type": "address"
        }
      ],
      "name": "RentalEnded",
      "type": "event"
    },
    {
      "anonymous": false,
      "inputs": [
        {
          "indexed": true,
          "internalType": "address",
          "name": "operator",
          "type": "address"
        },
        {
          "indexed": true,
          "internalType": "address",
          "name": "from",
          "type": "address"
        },
        {
          "indexed": true,
          "internalType": "address",
          "name": "to",
          "type": "address"
        },
        {
          "indexed": false,
          "internalType": "uint256[]",
          "name": "ids",
          "type": "uint256[]"
        },
        {
          "indexed": false,
          "internalType": "uint256[]",
          "name": "values",
          "type": "uint256[]"
        }
      ],
      "name": "TransferBatch",
      "type": "event"
    },
    {
      "anonymous": false,
      "inputs": [
        {
          "indexed": true,
          "internalType": "address",
          "name": "operator",
          "type": "address"
        },
        {
          "indexed": true,
          "internalType": "address",
          "name": "from",
          "type": "address"
        },
        {
          "indexed": true,
          "internalType": "address",
          "name": "to",
          "type": "address"
        },
        {
          "indexed": false,
          "internalType": "uint256",
          "name": "id",
          "type": "uint256"
        },
        {
          "indexed": false,
          "internalType": "uint256",
          "name": "value",
          "type": "uint256"
        }
      ],
      "name": "TransferSingle",
      "type": "event"
    },
    {
      "anonymous": false,
      "inputs": [
        {
          "indexed": false,
          "internalType": "string",
          "name": "value",
          "type": "string"
        },
        {
          "indexed": true,
          "internalType": "uint256",
          "name": "id",
          "type": "uint256"
        }
      ],
      "name": "URI",
      "type": "event"
    },
    {
      "inputs": [
        {
          "internalType": "address",
          "name": "account",
          "type": "address"
        },
        {
          "internalType": "uint256",
          "name": "id",
          "type": "uint256"
        }
      ],
      "name": "balanceOf",
      "outputs": [
        {
          "internalType": "uint256",
          "name": "",
          "type": "uint256"
        }
      ],
      "stateMutability": "view",
      "type": "function",
      "constant": true
    },
    {
      "inputs": [
        {
          "internalType": "address[]",
          "name": "accounts",
          "type": "address[]"
        },
        {
          "internalType": "uint256[]",
          "name": "ids",
          "type": "uint256[]"
        }
      ],
      "name": "balanceOfBatch",
      "outputs": [
        {
          "internalType": "uint256[]",
          "name": "",
          "type": "uint256[]"
        }
      ],
      "stateMutability": "view",
      "type": "function",
      "constant": true
    },
    {
      "inputs": [
        {
          "internalType": "address",
          "name": "account",
          "type": "address"
        },
        {
          "internalType": "address",
          "name": "operator",
          "type": "address"
        }
      ],
      "name": "isApprovedForAll",
      "outputs": [
        {
          "internalType": "bool",
          "name": "",
          "type": "bool"
        }
      ],
      "stateMutability": "view",
      "type": "function",
      "constant": true
    },
    {
      "inputs": [],
      "name": "owner",
      "outputs": [
        {
          "internalType": "address",
          "name": "",
          "type": "address"
        }
      ],
      "stateMutability": "view",
      "type": "function",
      "constant": true
    },
    {
      "inputs": [],
      "name": "renounceOwnership",
      "outputs": [],
      "stateMutability": "nonpayable",
      "type": "function"
    },
    {
      "inputs": [
        {
          "internalType": "address",
          "name": "from",
          "type": "address"
        },
        {
          "internalType": "address",
          "name": "to",
          "type": "address"
        },
        {
          "internalType": "uint256[]",
          "name": "ids",
          "type": "uint256[]"
        },
        {
          "internalType": "uint256[]",
          "name": "amounts",
          "type": "uint256[]"
        },
        {
          "internalType": "bytes",
          "name": "data",
          "type": "bytes"
        }
      ],
      "name": "safeBatchTransferFrom",
      "outputs": [],
      "stateMutability": "nonpayable",
      "type": "function"
    },
    {
      "inputs": [
        {
          "internalType": "address",
          "name": "from",
          "type": "address"
        },
        {
          "internalType": "address",
          "name": "to",
          "type": "address"
        },
        {
          "internalType": "uint256",
          "name": "id",
          "type": "uint256"
        },
        {
          "internalType": "uint256",
          "name": "amount",
          "type": "uint256"
        },
        {
          "internalType": "bytes",
          "name": "data",
          "type": "bytes"
        }
      ],
      "name": "safeTransferFrom",
      "outputs": [],
      "stateMutability": "nonpayable",
      "type": "function"
    },
    {
      "inputs": [
        {
          "internalType": "address",
          "name": "operator",
          "type": "address"
        },
        {
          "internalType": "bool",
          "name": "approved",
          "type": "bool"
        }
      ],
      "name": "setApprovalForAll",
      "outputs": [],
      "stateMutability": "nonpayable",
      "type": "function"
    },
    {
      "inputs": [
        {
          "internalType": "bytes4",
          "name": "interfaceId",
          "type": "bytes4"
        }
      ],
      "name": "supportsInterface",
      "outputs": [
        {
          "internalType": "bool",
          "name": "",
          "type": "bool"
        }
      ],
      "stateMutability": "view",
      "type": "function",
      "constant": true
    },
    {
      "inputs": [
        {
          "internalType": "address",
          "name": "newOwner",
          "type": "address"
        }
      ],
      "name": "transferOwnership",
      "outputs": [],
      "stateMutability": "nonpayable",
      "type": "function"
    },
    {
      "inputs": [
        {
          "internalType": "uint256",
          "name": "",
          "type": "uint256"
        }
      ],
      "name": "uri",
      "outputs": [
        {
          "internalType": "string",
          "name": "",
          "type": "string"
        }
      ],
      "stateMutability": "view",
      "type": "function",
      "constant": true
    },
    {
      "inputs": [
        {
          "internalType": "address",
          "name": "to",
          "type": "address"
        },
        {
          "internalType": "string",
          "name": "make",
          "type": "string"
        },
        {
          "internalType": "string",
          "name": "model",
          "type": "string"
        },
        {
          "internalType": "uint256",
          "name": "price",
          "type": "uint256"
        }
      ],
      "name": "mintVehicle",
      "outputs": [],
      "stateMutability": "nonpayable",
      "type": "function"
    },
    {
      "inputs": [
        {
          "internalType": "uint256",
          "name": "tokenId",
          "type": "uint256"
        },
        {
          "internalType": "uint256",
          "name": "startTime",
          "type": "uint256"
        },
        {
          "internalType": "uint256",
          "name": "endTime",
          "type": "uint256"
        }
      ],
      "name": "rentVehicle",
      "outputs": [],
      "stateMutability": "nonpayable",
      "type": "function"
    },
    {
      "inputs": [
        {
          "internalType": "uint256",
          "name": "tokenId",
          "type": "uint256"
        }
      ],
      "name": "endRental",
      "outputs": [],
      "stateMutability": "nonpayable",
      "type": "function"
    },
    {
      "inputs": [
        {
          "internalType": "uint256",
          "name": "tokenId",
          "type": "uint256"
        }
      ],
      "name": "getVehicleData",
      "outputs": [
        {
          "internalType": "string",
          "name": "make",
          "type": "string"
        },
        {
          "internalType": "string",
          "name": "model",
          "type": "string"
        },
        {
          "internalType": "uint256",
          "name": "price",
          "type": "uint256"
        },
        {
          "internalType": "uint256",
          "name": "startTime",
          "type": "uint256"
        },
        {
          "internalType": "uint256",
          "name": "endTime",
          "type": "uint256"
        }
      ],
      "stateMutability": "view",
      "type": "function",
      "constant": true
    }
  ],
  "bytecode": "0x608060405260006005553480156200001657600080fd5b5060405162003e7038038062003e7083398181016040528101906200003c9190620002ec565b806200004e816200007660201b60201c565b506200006f620000636200008b60201b60201c565b6200009360201b60201c565b506200066f565b806002908162000087919062000588565b5050565b600033905090565b6000600360009054906101000a900473ffffffffffffffffffffffffffffffffffffffff16905081600360006101000a81548173ffffffffffffffffffffffffffffffffffffffff021916908373ffffffffffffffffffffffffffffffffffffffff1602179055508173ffffffffffffffffffffffffffffffffffffffff168173ffffffffffffffffffffffffffffffffffffffff167f8be0079c531659141344cd1fd0a4f28419497f9722a3daafe3b4186f6b6457e060405160405180910390a35050565b6000604051905090565b600080fd5b600080fd5b600080fd5b600080fd5b6000601f19601f8301169050919050565b7f4e487b7100000000000000000000000000000000000000000000000000000000600052604160045260246000fd5b620001c28262000177565b810181811067ffffffffffffffff82111715620001e457620001e362000188565b5b80604052505050565b6000620001f962000159565b9050620002078282620001b7565b919050565b600067ffffffffffffffff8211156200022a576200022962000188565b5b620002358262000177565b9050602081019050919050565b60005b838110156200026257808201518184015260208101905062000245565b60008484015250505050565b6000620002856200027f846200020c565b620001ed565b905082815260208101848484011115620002a457620002a362000172565b5b620002b184828562000242565b509392505050565b600082601f830112620002d157620002d06200016d565b5b8151620002e38482602086016200026e565b91505092915050565b60006020828403121562000305576200030462000163565b5b600082015167ffffffffffffffff81111562000326576200032562000168565b5b6200033484828501620002b9565b91505092915050565b600081519050919050565b7f4e487b7100000000000000000000000000000000000000000000000000000000600052602260045260246000fd5b600060028204905060018216806200039057607f821691505b602082108103620003a657620003a562000348565b5b50919050565b60008190508160005260206000209050919050565b60006020601f8301049050919050565b600082821b905092915050565b600060088302620004107fffffffffffffffffffffffffffffffffffffffffffffffffffffffffffffffff82620003d1565b6200041c8683620003d1565b95508019841693508086168417925050509392505050565b6000819050919050565b6000819050919050565b600062000469620004636200045d8462000434565b6200043e565b62000434565b9050919050565b6000819050919050565b620004858362000448565b6200049d620004948262000470565b848454620003de565b825550505050565b600090565b620004b4620004a5565b620004c18184846200047a565b505050565b5b81811015620004e957620004dd600082620004aa565b600181019050620004c7565b5050565b601f82111562000538576200050281620003ac565b6200050d84620003c1565b810160208510156200051d578190505b620005356200052c85620003c1565b830182620004c6565b50505b505050565b600082821c905092915050565b60006200055d600019846008026200053d565b1980831691505092915050565b60006200057883836200054a565b9150826002028217905092915050565b62000593826200033d565b67ffffffffffffffff811115620005af57620005ae62000188565b5b620005bb825462000377565b620005c8828285620004ed565b600060209050601f831160018114620006005760008415620005eb578287015190505b620005f785826200056a565b86555062000667565b601f1984166200061086620003ac565b60005b828110156200063a5784890151825560018201915060208501945060208101905062000613565b868310156200065a578489015162000656601f8916826200054a565b8355505b6001600288020188555050505b505050505050565b6137f1806200067f6000396000f3fe608060405234801561001057600080fd5b50600436106100f45760003560e01c80638da5cb5b11610097578063e0186e8f11610066578063e0186e8f14610285578063e985e9c5146102a1578063f242432a146102d1578063f2fde38b146102ed576100f4565b80638da5cb5b146101fb57806397491d6f14610219578063a22cb46514610235578063c8920eb114610251576100f4565b80632eb2c2d6116100d35780632eb2c2d614610189578063390e8a77146101a55780634e1273f4146101c1578063715018a6146101f1576100f4565b8062fdd58e146100f957806301ffc9a7146101295780630e89341c14610159575b600080fd5b610113600480360381019061010e9190611ea7565b610309565b6040516101209190611ef6565b60405180910390f35b610143600480360381019061013e9190611f69565b6103d1565b6040516101509190611fb1565b60405180910390f35b610173600480360381019061016e9190611fcc565b6104b3565b6040516101809190612089565b60405180910390f35b6101a3600480360381019061019e91906122a8565b610547565b005b6101bf60048036038101906101ba9190612377565b6105e8565b005b6101db60048036038101906101d6919061248d565b610750565b6040516101e891906125c3565b60405180910390f35b6101f9610869565b005b61020361087d565b60405161021091906125f4565b60405180910390f35b610233600480360381019061022e9190611fcc565b6108a7565b005b61024f600480360381019061024a919061263b565b610ab5565b005b61026b60048036038101906102669190611fcc565b610acb565b60405161027c95949392919061267b565b60405180910390f35b61029f600480360381019061029a919061277d565b610c2c565b005b6102bb60048036038101906102b6919061281c565b610d5e565b6040516102c89190611fb1565b60405180910390f35b6102eb60048036038101906102e6919061285c565b610df2565b005b610307600480360381019061030291906128f3565b610e93565b005b60008073ffffffffffffffffffffffffffffffffffffffff168373ffffffffffffffffffffffffffffffffffffffff1603610379576040517f08c379a000000000000000000000000000000000000000000000000000000000815260040161037090612992565b60405180910390fd5b60008083815260200190815260200160002060008473ffffffffffffffffffffffffffffffffffffffff1673ffffffffffffffffffffffffffffffffffffffff16815260200190815260200160002054905092915050565b60007fd9b67a26000000000000000000000000000000000000000000000000000000007bffffffffffffffffffffffffffffffffffffffffffffffffffffffff1916827bffffffffffffffffffffffffffffffffffffffffffffffffffffffff1916148061049c57507f0e89341c000000000000000000000000000000000000000000000000000000007bffffffffffffffffffffffffffffffffffffffffffffffffffffffff1916827bffffffffffffffffffffffffffffffffffffffffffffffffffffffff1916145b806104ac57506104ab82610f16565b5b9050919050565b6060600280546104c2906129e1565b80601f01602080910402602001604051908101604052809291908181526020018280546104ee906129e1565b801561053b5780601f106105105761010080835404028352916020019161053b565b820191906000526020600020905b81548152906001019060200180831161051e57829003601f168201915b50505050509050919050565b61054f610f80565b73ffffffffffffffffffffffffffffffffffffffff168573ffffffffffffffffffffffffffffffffffffffff16148061059557506105948561058f610f80565b610d5e565b5b6105d4576040517f08c379a00000000000000000000000000000000000000000000000000000000081526004016105cb90612a84565b60405180910390fd5b6105e18585858585610f88565b5050505050565b600161062a6004600086815260200190815260200160002060050160009054906101000a900473ffffffffffffffffffffffffffffffffffffffff1685610309565b1461066a576040517f08c379a000000000000000000000000000000000000000000000000000000000815260040161066190612b16565b60405180910390fd5b816004600085815260200190815260200160002060040154106106c2576040517f08c379a00000000000000000000000000000000000000000000000000000000081526004016106b990612ba8565b60405180910390fd5b6107156004600085815260200190815260200160002060050160009054906101000a900473ffffffffffffffffffffffffffffffffffffffff163385600160405180602001604052806000815250610df2565b816004600085815260200190815260200160002060030181905550806004600085815260200190815260200160002060040181905550505050565b60608151835114610796576040517f08c379a000000000000000000000000000000000000000000000000000000000815260040161078d90612c3a565b60405180910390fd5b6000835167ffffffffffffffff8111156107b3576107b26120b0565b5b6040519080825280602002602001820160405280156107e15781602001602082028036833780820191505090505b50905060005b845181101561085e5761082e85828151811061080657610805612c5a565b5b602002602001015185838151811061082157610820612c5a565b5b6020026020010151610309565b82828151811061084157610840612c5a565b5b6020026020010181815250508061085790612cb8565b90506107e7565b508091505092915050565b6108716112a9565b61087b6000611327565b565b6000600360009054906101000a900473ffffffffffffffffffffffffffffffffffffffff16905090565b80426004600083815260200190815260200160002060040154111580156108d7575060016108d53383610309565b145b156109a15761092f336004600084815260200190815260200160002060050160009054906101000a900473ffffffffffffffffffffffffffffffffffffffff1683600160405180602001604052806000815250610df2565b60006004600083815260200190815260200160002060030181905550600060046000838152602001908152602001600020600401819055507ff9bbd47d9659083aa5b016ffd346aca413549aace523513f610200aeed1e1dd48133604051610998929190612d00565b60405180910390a15b60016109ad3384610309565b146109ed576040517f08c379a00000000000000000000000000000000000000000000000000000000081526004016109e490612d75565b60405180910390fd5b610a40336004600085815260200190815260200160002060050160009054906101000a900473ffffffffffffffffffffffffffffffffffffffff1684600160405180602001604052806000815250610df2565b60006004600084815260200190815260200160002060030181905550600060046000848152602001908152602001600020600401819055507ff9bbd47d9659083aa5b016ffd346aca413549aace523513f610200aeed1e1dd48233604051610aa9929190612d00565b60405180910390a15050565b610ac7610ac0610f80565b83836113ed565b5050565b6060806000806000806004600088815260200190815260200160002090508060000181600101826002015483600301548460040154848054610b0c906129e1565b80601f0160208091040260200160405190810160405280929190818152602001828054610b38906129e1565b8015610b855780601f10610b5a57610100808354040283529160200191610b85565b820191906000526020600020905b815481529060010190602001808311610b6857829003601f168201915b50505050509450838054610b98906129e1565b80601f0160208091040260200160405190810160405280929190818152602001828054610bc4906129e1565b8015610c115780601f10610be657610100808354040283529160200191610c11565b820191906000526020600020905b815481529060010190602001808311610bf457829003601f168201915b50505050509350955095509550955095505091939590929450565b610c346112a9565b610c5284600554600160405180602001604052806000815250611559565b6040518060c0016040528084815260200183815260200182815260200160008152602001600081526020013373ffffffffffffffffffffffffffffffffffffffff168152506004600060055481526020019081526020016000206000820151816000019081610cc19190612f41565b506020820151816001019081610cd79190612f41565b5060408201518160020155606082015181600301556080820151816004015560a08201518160050160006101000a81548173ffffffffffffffffffffffffffffffffffffffff021916908373ffffffffffffffffffffffffffffffffffffffff16021790555090505060056000815480929190610d5390612cb8565b919050555050505050565b6000600160008473ffffffffffffffffffffffffffffffffffffffff1673ffffffffffffffffffffffffffffffffffffffff16815260200190815260200160002060008373ffffffffffffffffffffffffffffffffffffffff1673ffffffffffffffffffffffffffffffffffffffff16815260200190815260200160002060009054906101000a900460ff16905092915050565b610dfa610f80565b73ffffffffffffffffffffffffffffffffffffffff168573ffffffffffffffffffffffffffffffffffffffff161480610e405750610e3f85610e3a610f80565b610d5e565b5b610e7f576040517f08c379a0000000000000000000000000000000000000000000000000000000008152600401610e7690612a84565b60405180910390fd5b610e8c8585858585611709565b5050505050565b610e9b6112a9565b600073ffffffffffffffffffffffffffffffffffffffff168173ffffffffffffffffffffffffffffffffffffffff1603610f0a576040517f08c379a0000000000000000000000000000000000000000000000000000000008152600401610f0190613085565b60405180910390fd5b610f1381611327565b50565b60007f01ffc9a7000000000000000000000000000000000000000000000000000000007bffffffffffffffffffffffffffffffffffffffffffffffffffffffff1916827bffffffffffffffffffffffffffffffffffffffffffffffffffffffff1916149050919050565b600033905090565b8151835114610fcc576040517f08c379a0000000000000000000000000000000000000000000000000000000008152600401610fc390613117565b60405180910390fd5b600073ffffffffffffffffffffffffffffffffffffffff168473ffffffffffffffffffffffffffffffffffffffff160361103b576040517f08c379a0000000000000000000000000000000000000000000000000000000008152600401611032906131a9565b60405180910390fd5b6000611045610f80565b90506110558187878787876119a4565b60005b845181101561120657600085828151811061107657611075612c5a565b5b60200260200101519050600085838151811061109557611094612c5a565b5b60200260200101519050600080600084815260200190815260200160002060008b73ffffffffffffffffffffffffffffffffffffffff1673ffffffffffffffffffffffffffffffffffffffff16815260200190815260200160002054905081811015611136576040517f08c379a000000000000000000000000000000000000000000000000000000000815260040161112d9061323b565b60405180910390fd5b81810360008085815260200190815260200160002060008c73ffffffffffffffffffffffffffffffffffffffff1673ffffffffffffffffffffffffffffffffffffffff168152602001908152602001600020819055508160008085815260200190815260200160002060008b73ffffffffffffffffffffffffffffffffffffffff1673ffffffffffffffffffffffffffffffffffffffff16815260200190815260200160002060008282546111eb919061325b565b92505081905550505050806111ff90612cb8565b9050611058565b508473ffffffffffffffffffffffffffffffffffffffff168673ffffffffffffffffffffffffffffffffffffffff168273ffffffffffffffffffffffffffffffffffffffff167f4a39dc06d4c0dbc64b70af90fd698a233a518aa5d07e595d983b8c0526c8f7fb878760405161127d92919061328f565b60405180910390a46112938187878787876119ac565b6112a18187878787876119b4565b505050505050565b6112b1610f80565b73ffffffffffffffffffffffffffffffffffffffff166112cf61087d565b73ffffffffffffffffffffffffffffffffffffffff1614611325576040517f08c379a000000000000000000000000000000000000000000000000000000000815260040161131c90613312565b60405180910390fd5b565b6000600360009054906101000a900473ffffffffffffffffffffffffffffffffffffffff16905081600360006101000a81548173ffffffffffffffffffffffffffffffffffffffff021916908373ffffffffffffffffffffffffffffffffffffffff1602179055508173ffffffffffffffffffffffffffffffffffffffff168173ffffffffffffffffffffffffffffffffffffffff167f8be0079c531659141344cd1fd0a4f28419497f9722a3daafe3b4186f6b6457e060405160405180910390a35050565b8173ffffffffffffffffffffffffffffffffffffffff168373ffffffffffffffffffffffffffffffffffffffff160361145b576040517f08c379a0000000000000000000000000000000000000000000000000000000008152600401611452906133a4565b60405180910390fd5b80600160008573ffffffffffffffffffffffffffffffffffffffff1673ffffffffffffffffffffffffffffffffffffffff16815260200190815260200160002060008473ffffffffffffffffffffffffffffffffffffffff1673ffffffffffffffffffffffffffffffffffffffff16815260200190815260200160002060006101000a81548160ff0219169083151502179055508173ffffffffffffffffffffffffffffffffffffffff168373ffffffffffffffffffffffffffffffffffffffff167f17307eab39ab6107e8899845ad3d59bd9653f200f220920489ca2b5937696c318360405161154c9190611fb1565b60405180910390a3505050565b600073ffffffffffffffffffffffffffffffffffffffff168473ffffffffffffffffffffffffffffffffffffffff16036115c8576040517f08c379a00000000000000000000000000000000000000000000000000000000081526004016115bf90613436565b60405180910390fd5b60006115d2610f80565b905060006115df85611b8b565b905060006115ec85611b8b565b90506115fd836000898585896119a4565b8460008088815260200190815260200160002060008973ffffffffffffffffffffffffffffffffffffffff1673ffffffffffffffffffffffffffffffffffffffff168152602001908152602001600020600082825461165c919061325b565b925050819055508673ffffffffffffffffffffffffffffffffffffffff16600073ffffffffffffffffffffffffffffffffffffffff168473ffffffffffffffffffffffffffffffffffffffff167fc3d58168c5ae7397731d063d5bbf3d657854427343f4c083240f7aacaa2d0f6289896040516116da929190613456565b60405180910390a46116f1836000898585896119ac565b61170083600089898989611c05565b50505050505050565b600073ffffffffffffffffffffffffffffffffffffffff168473ffffffffffffffffffffffffffffffffffffffff1603611778576040517f08c379a000000000000000000000000000000000000000000000000000000000815260040161176f906131a9565b60405180910390fd5b6000611782610f80565b9050600061178f85611b8b565b9050600061179c85611b8b565b90506117ac8389898585896119a4565b600080600088815260200190815260200160002060008a73ffffffffffffffffffffffffffffffffffffffff1673ffffffffffffffffffffffffffffffffffffffff16815260200190815260200160002054905085811015611843576040517f08c379a000000000000000000000000000000000000000000000000000000000815260040161183a9061323b565b60405180910390fd5b85810360008089815260200190815260200160002060008b73ffffffffffffffffffffffffffffffffffffffff1673ffffffffffffffffffffffffffffffffffffffff168152602001908152602001600020819055508560008089815260200190815260200160002060008a73ffffffffffffffffffffffffffffffffffffffff1673ffffffffffffffffffffffffffffffffffffffff16815260200190815260200160002060008282546118f8919061325b565b925050819055508773ffffffffffffffffffffffffffffffffffffffff168973ffffffffffffffffffffffffffffffffffffffff168573ffffffffffffffffffffffffffffffffffffffff167fc3d58168c5ae7397731d063d5bbf3d657854427343f4c083240f7aacaa2d0f628a8a604051611975929190613456565b60405180910390a461198b848a8a86868a6119ac565b611999848a8a8a8a8a611c05565b505050505050505050565b505050505050565b505050505050565b6119d38473ffffffffffffffffffffffffffffffffffffffff16611ddc565b15611b83578373ffffffffffffffffffffffffffffffffffffffff1663bc197c8187878686866040518663ffffffff1660e01b8152600401611a199594939291906134d4565b6020604051808303816000875af1925050508015611a5557506040513d601f19601f82011682018060405250810190611a529190613551565b60015b611afa57611a6161358b565b806308c379a003611abd5750611a756135ad565b80611a805750611abf565b806040517f08c379a0000000000000000000000000000000000000000000000000000000008152600401611ab49190612089565b60405180910390fd5b505b6040517f08c379a0000000000000000000000000000000000000000000000000000000008152600401611af1906136af565b60405180910390fd5b63bc197c8160e01b7bffffffffffffffffffffffffffffffffffffffffffffffffffffffff1916817bffffffffffffffffffffffffffffffffffffffffffffffffffffffff191614611b81576040517f08c379a0000000000000000000000000000000000000000000000000000000008152600401611b7890613741565b60405180910390fd5b505b505050505050565b60606000600167ffffffffffffffff811115611baa57611ba96120b0565b5b604051908082528060200260200182016040528015611bd85781602001602082028036833780820191505090505b5090508281600081518110611bf057611bef612c5a565b5b60200260200101818152505080915050919050565b611c248473ffffffffffffffffffffffffffffffffffffffff16611ddc565b15611dd4578373ffffffffffffffffffffffffffffffffffffffff1663f23a6e6187878686866040518663ffffffff1660e01b8152600401611c6a959493929190613761565b6020604051808303816000875af1925050508015611ca657506040513d601f19601f82011682018060405250810190611ca39190613551565b60015b611d4b57611cb261358b565b806308c379a003611d0e5750611cc66135ad565b80611cd15750611d10565b806040517f08c379a0000000000000000000000000000000000000000000000000000000008152600401611d059190612089565b60405180910390fd5b505b6040517f08c379a0000000000000000000000000000000000000000000000000000000008152600401611d42906136af565b60405180910390fd5b63f23a6e6160e01b7bffffffffffffffffffffffffffffffffffffffffffffffffffffffff1916817bffffffffffffffffffffffffffffffffffffffffffffffffffffffff191614611dd2576040517f08c379a0000000000000000000000000000000000000000000000000000000008152600401611dc990613741565b60405180910390fd5b505b505050505050565b6000808273ffffffffffffffffffffffffffffffffffffffff163b119050919050565b6000604051905090565b600080fd5b600080fd5b600073ffffffffffffffffffffffffffffffffffffffff82169050919050565b6000611e3e82611e13565b9050919050565b611e4e81611e33565b8114611e5957600080fd5b50565b600081359050611e6b81611e45565b92915050565b6000819050919050565b611e8481611e71565b8114611e8f57600080fd5b50565b600081359050611ea181611e7b565b92915050565b60008060408385031215611ebe57611ebd611e09565b5b6000611ecc85828601611e5c565b9250506020611edd85828601611e92565b9150509250929050565b611ef081611e71565b82525050565b6000602082019050611f0b6000830184611ee7565b92915050565b60007fffffffff0000000000000000000000000000000000000000000000000000000082169050919050565b611f4681611f11565b8114611f5157600080fd5b50565b600081359050611f6381611f3d565b92915050565b600060208284031215611f7f57611f7e611e09565b5b6000611f8d84828501611f54565b91505092915050565b60008115159050919050565b611fab81611f96565b82525050565b6000602082019050611fc66000830184611fa2565b92915050565b600060208284031215611fe257611fe1611e09565b5b6000611ff084828501611e92565b91505092915050565b600081519050919050565b600082825260208201905092915050565b60005b83811015612033578082015181840152602081019050612018565b60008484015250505050565b6000601f19601f8301169050919050565b600061205b82611ff9565b6120658185612004565b9350612075818560208601612015565b61207e8161203f565b840191505092915050565b600060208201905081810360008301526120a38184612050565b905092915050565b600080fd5b7f4e487b7100000000000000000000000000000000000000000000000000000000600052604160045260246000fd5b6120e88261203f565b810181811067ffffffffffffffff82111715612107576121066120b0565b5b80604052505050565b600061211a611dff565b905061212682826120df565b919050565b600067ffffffffffffffff821115612146576121456120b0565b5b602082029050602081019050919050565b600080fd5b600061216f61216a8461212b565b612110565b9050808382526020820190506020840283018581111561219257612191612157565b5b835b818110156121bb57806121a78882611e92565b845260208401935050602081019050612194565b5050509392505050565b600082601f8301126121da576121d96120ab565b5b81356121ea84826020860161215c565b91505092915050565b600080fd5b600067ffffffffffffffff821115612213576122126120b0565b5b61221c8261203f565b9050602081019050919050565b82818337600083830152505050565b600061224b612246846121f8565b612110565b905082815260208101848484011115612267576122666121f3565b5b612272848285612229565b509392505050565b600082601f83011261228f5761228e6120ab565b5b813561229f848260208601612238565b91505092915050565b600080600080600060a086880312156122c4576122c3611e09565b5b60006122d288828901611e5c565b95505060206122e388828901611e5c565b945050604086013567ffffffffffffffff81111561230457612303611e0e565b5b612310888289016121c5565b935050606086013567ffffffffffffffff81111561233157612330611e0e565b5b61233d888289016121c5565b925050608086013567ffffffffffffffff81111561235e5761235d611e0e565b5b61236a8882890161227a565b9150509295509295909350565b6000806000606084860312156123905761238f611e09565b5b600061239e86828701611e92565b93505060206123af86828701611e92565b92505060406123c086828701611e92565b9150509250925092565b600067ffffffffffffffff8211156123e5576123e46120b0565b5b602082029050602081019050919050565b6000612409612404846123ca565b612110565b9050808382526020820190506020840283018581111561242c5761242b612157565b5b835b8181101561245557806124418882611e5c565b84526020840193505060208101905061242e565b5050509392505050565b600082601f830112612474576124736120ab565b5b81356124848482602086016123f6565b91505092915050565b600080604083850312156124a4576124a3611e09565b5b600083013567ffffffffffffffff8111156124c2576124c1611e0e565b5b6124ce8582860161245f565b925050602083013567ffffffffffffffff8111156124ef576124ee611e0e565b5b6124fb858286016121c5565b9150509250929050565b600081519050919050565b600082825260208201905092915050565b6000819050602082019050919050565b61253a81611e71565b82525050565b600061254c8383612531565b60208301905092915050565b6000602082019050919050565b600061257082612505565b61257a8185612510565b935061258583612521565b8060005b838110156125b657815161259d8882612540565b97506125a883612558565b925050600181019050612589565b5085935050505092915050565b600060208201905081810360008301526125dd8184612565565b905092915050565b6125ee81611e33565b82525050565b600060208201905061260960008301846125e5565b92915050565b61261881611f96565b811461262357600080fd5b50565b6000813590506126358161260f565b92915050565b6000806040838503121561265257612651611e09565b5b600061266085828601611e5c565b925050602061267185828601612626565b9150509250929050565b600060a08201905081810360008301526126958188612050565b905081810360208301526126a98187612050565b90506126b86040830186611ee7565b6126c56060830185611ee7565b6126d26080830184611ee7565b9695505050505050565b600067ffffffffffffffff8211156126f7576126f66120b0565b5b6127008261203f565b9050602081019050919050565b600061272061271b846126dc565b612110565b90508281526020810184848401111561273c5761273b6121f3565b5b612747848285612229565b509392505050565b600082601f830112612764576127636120ab565b5b813561277484826020860161270d565b91505092915050565b6000806000806080858703121561279757612796611e09565b5b60006127a587828801611e5c565b945050602085013567ffffffffffffffff8111156127c6576127c5611e0e565b5b6127d28782880161274f565b935050604085013567ffffffffffffffff8111156127f3576127f2611e0e565b5b6127ff8782880161274f565b925050606061281087828801611e92565b91505092959194509250565b6000806040838503121561283357612832611e09565b5b600061284185828601611e5c565b925050602061285285828601611e5c565b9150509250929050565b600080600080600060a0868803121561287857612877611e09565b5b600061288688828901611e5c565b955050602061289788828901611e5c565b94505060406128a888828901611e92565b93505060606128b988828901611e92565b925050608086013567ffffffffffffffff8111156128da576128d9611e0e565b5b6128e68882890161227a565b9150509295509295909350565b60006020828403121561290957612908611e09565b5b600061291784828501611e5c565b91505092915050565b7f455243313135353a2061646472657373207a65726f206973206e6f742061207660008201527f616c6964206f776e657200000000000000000000000000000000000000000000602082015250565b600061297c602a83612004565b915061298782612920565b604082019050919050565b600060208201905081810360008301526129ab8161296f565b9050919050565b7f4e487b7100000000000000000000000000000000000000000000000000000000600052602260045260246000fd5b600060028204905060018216806129f957607f821691505b602082108103612a0c57612a0b6129b2565b5b50919050565b7f455243313135353a2063616c6c6572206973206e6f7420746f6b656e206f776e60008201527f6572206f7220617070726f766564000000000000000000000000000000000000602082015250565b6000612a6e602e83612004565b9150612a7982612a12565b604082019050919050565b60006020820190508181036000830152612a9d81612a61565b9050919050565b7f5468652061707020646f6573206e6f74206f776e20746869732076656869636c60008201527f6500000000000000000000000000000000000000000000000000000000000000602082015250565b6000612b00602183612004565b9150612b0b82612aa4565b604082019050919050565b60006020820190508181036000830152612b2f81612af3565b9050919050565b7f56656869636c6520697320616c72656164792072656e74656420647572696e6760008201527f20746869732074696d6500000000000000000000000000000000000000000000602082015250565b6000612b92602a83612004565b9150612b9d82612b36565b604082019050919050565b60006020820190508181036000830152612bc181612b85565b9050919050565b7f455243313135353a206163636f756e747320616e6420696473206c656e67746860008201527f206d69736d617463680000000000000000000000000000000000000000000000602082015250565b6000612c24602983612004565b9150612c2f82612bc8565b604082019050919050565b60006020820190508181036000830152612c5381612c17565b9050919050565b7f4e487b7100000000000000000000000000000000000000000000000000000000600052603260045260246000fd5b7f4e487b7100000000000000000000000000000000000000000000000000000000600052601160045260246000fd5b6000612cc382611e71565b91507fffffffffffffffffffffffffffffffffffffffffffffffffffffffffffffffff8203612cf557612cf4612c89565b5b600182019050919050565b6000604082019050612d156000830185611ee7565b612d2260208301846125e5565b9392505050565b7f596f7520646f206e6f74206f776e20746869732076656869636c650000000000600082015250565b6000612d5f601b83612004565b9150612d6a82612d29565b602082019050919050565b60006020820190508181036000830152612d8e81612d52565b9050919050565b60008190508160005260206000209050919050565b60006020601f8301049050919050565b600082821b905092915050565b600060088302612df77fffffffffffffffffffffffffffffffffffffffffffffffffffffffffffffffff82612dba565b612e018683612dba565b95508019841693508086168417925050509392505050565b6000819050919050565b6000612e3e612e39612e3484611e71565b612e19565b611e71565b9050919050565b6000819050919050565b612e5883612e23565b612e6c612e6482612e45565b848454612dc7565b825550505050565b600090565b612e81612e74565b612e8c818484612e4f565b505050565b5b81811015612eb057612ea5600082612e79565b600181019050612e92565b5050565b601f821115612ef557612ec681612d95565b612ecf84612daa565b81016020851015612ede578190505b612ef2612eea85612daa565b830182612e91565b50505b505050565b600082821c905092915050565b6000612f1860001984600802612efa565b1980831691505092915050565b6000612f318383612f07565b9150826002028217905092915050565b612f4a82611ff9565b67ffffffffffffffff811115612f6357612f626120b0565b5b612f6d82546129e1565b612f78828285612eb4565b600060209050601f831160018114612fab5760008415612f99578287015190505b612fa38582612f25565b86555061300b565b601f198416612fb986612d95565b60005b82811015612fe157848901518255600182019150602085019450602081019050612fbc565b86831015612ffe5784890151612ffa601f891682612f07565b8355505b6001600288020188555050505b505050505050565b7f4f776e61626c653a206e6577206f776e657220697320746865207a65726f206160008201527f6464726573730000000000000000000000000000000000000000000000000000602082015250565b600061306f602683612004565b915061307a82613013565b604082019050919050565b6000602082019050818103600083015261309e81613062565b9050919050565b7f455243313135353a2069647320616e6420616d6f756e7473206c656e6774682060008201527f6d69736d61746368000000000000000000000000000000000000000000000000602082015250565b6000613101602883612004565b915061310c826130a5565b604082019050919050565b60006020820190508181036000830152613130816130f4565b9050919050565b7f455243313135353a207472616e7366657220746f20746865207a65726f20616460008201527f6472657373000000000000000000000000000000000000000000000000000000602082015250565b6000613193602583612004565b915061319e82613137565b604082019050919050565b600060208201905081810360008301526131c281613186565b9050919050565b7f455243313135353a20696e73756666696369656e742062616c616e636520666f60008201527f72207472616e7366657200000000000000000000000000000000000000000000602082015250565b6000613225602a83612004565b9150613230826131c9565b604082019050919050565b6000602082019050818103600083015261325481613218565b9050919050565b600061326682611e71565b915061327183611e71565b925082820190508082111561328957613288612c89565b5b92915050565b600060408201905081810360008301526132a98185612565565b905081810360208301526132bd8184612565565b90509392505050565b7f4f776e61626c653a2063616c6c6572206973206e6f7420746865206f776e6572600082015250565b60006132fc602083612004565b9150613307826132c6565b602082019050919050565b6000602082019050818103600083015261332b816132ef565b9050919050565b7f455243313135353a2073657474696e6720617070726f76616c2073746174757360008201527f20666f722073656c660000000000000000000000000000000000000000000000602082015250565b600061338e602983612004565b915061339982613332565b604082019050919050565b600060208201905081810360008301526133bd81613381565b9050919050565b7f455243313135353a206d696e7420746f20746865207a65726f2061646472657360008201527f7300000000000000000000000000000000000000000000000000000000000000602082015250565b6000613420602183612004565b915061342b826133c4565b604082019050919050565b6000602082019050818103600083015261344f81613413565b9050919050565b600060408201905061346b6000830185611ee7565b6134786020830184611ee7565b9392505050565b600081519050919050565b600082825260208201905092915050565b60006134a68261347f565b6134b0818561348a565b93506134c0818560208601612015565b6134c98161203f565b840191505092915050565b600060a0820190506134e960008301886125e5565b6134f660208301876125e5565b81810360408301526135088186612565565b9050818103606083015261351c8185612565565b90508181036080830152613530818461349b565b90509695505050505050565b60008151905061354b81611f3d565b92915050565b60006020828403121561356757613566611e09565b5b60006135758482850161353c565b91505092915050565b60008160e01c9050919050565b600060033d11156135aa5760046000803e6135a760005161357e565b90505b90565b600060443d1061363a576135bf611dff565b60043d036004823e80513d602482011167ffffffffffffffff821117156135e757505061363a565b808201805167ffffffffffffffff811115613605575050505061363a565b80602083010160043d03850181111561362257505050505061363a565b613631826020018501866120df565b82955050505050505b90565b7f455243313135353a207472616e7366657220746f206e6f6e2d4552433131353560008201527f526563656976657220696d706c656d656e746572000000000000000000000000602082015250565b6000613699603483612004565b91506136a48261363d565b604082019050919050565b600060208201905081810360008301526136c88161368c565b9050919050565b7f455243313135353a204552433131353552656365697665722072656a6563746560008201527f6420746f6b656e73000000000000000000000000000000000000000000000000602082015250565b600061372b602883612004565b9150613736826136cf565b604082019050919050565b6000602082019050818103600083015261375a8161371e565b9050919050565b600060a08201905061377660008301886125e5565b61378360208301876125e5565b6137906040830186611ee7565b61379d6060830185611ee7565b81810360808301526137af818461349b565b9050969550505050505056fea26469706673582212204ce12af3e72f8fbfba54d08831fb8531b8ae8705aff8b59bb0aed2d554b6d01b64736f6c63430008130033",
  "immutableReferences": {},
  "source": "pragma solidity ^0.8.0;\n\nimport \"@openzeppelin/contracts/token/ERC1155/ERC1155.sol\";\nimport \"@openzeppelin/contracts/access/Ownable.sol\";\n\ncontract ElectricVehicle is ERC1155, Ownable {\n    // Add a constructor with a URI parameter\n    constructor(string memory uri) ERC1155(uri) {}\n\n\n    struct Vehicle {\n        string make;\n        string model;\n        uint256 price;\n        uint256 startTime;\n        uint256 endTime;\n        address appAddress;\n    }\n\n    mapping(uint256 => Vehicle) private _vehicleData;\n\n    uint256 private _currentTokenId = 0;\n\n    function mintVehicle(\n        address to,\n        string memory make,\n        string memory model,\n        uint256 price\n    ) public onlyOwner {\n        _mint(to, _currentTokenId, 1, \"\");\n        _vehicleData[_currentTokenId] = Vehicle(make, model, price, 0, 0, msg.sender);\n        _currentTokenId++;\n    }\n\n    function rentVehicle(uint256 tokenId, uint256 startTime, uint256 endTime) public {\n        require(balanceOf(_vehicleData[tokenId].appAddress, tokenId) == 1, \"The app does not own this vehicle\");\n        require(_vehicleData[tokenId].endTime < startTime, \"Vehicle is already rented during this time\");\n\n        // Transfer ownership to the renter\n        safeTransferFrom(_vehicleData[tokenId].appAddress, msg.sender, tokenId, 1, \"\");\n\n        _vehicleData[tokenId].startTime = startTime;\n        _vehicleData[tokenId].endTime = endTime;\n    }\n\n    event RentalEnded(uint256 tokenId, address renter);\n\n    function endRental(uint256 tokenId) public checkRentalStatus(tokenId) {\n        require(balanceOf(msg.sender, tokenId) == 1, \"You do not own this vehicle\");\n\n        // Transfer ownership back to the app\n        safeTransferFrom(msg.sender, _vehicleData[tokenId].appAddress, tokenId, 1, \"\");\n\n        // Reset rental start and end times\n        _vehicleData[tokenId].startTime = 0;\n        _vehicleData[tokenId].endTime = 0;\n\n        emit RentalEnded(tokenId, msg.sender);\n    }\n\n    modifier checkRentalStatus(uint256 tokenId) {\n        if (_vehicleData[tokenId].endTime <= block.timestamp && balanceOf(msg.sender, tokenId) == 1) {\n            // Transfer ownership back to the app\n            safeTransferFrom(msg.sender, _vehicleData[tokenId].appAddress, tokenId, 1, \"\");\n\n            // Reset rental start and end times\n            _vehicleData[tokenId].startTime = 0;\n            _vehicleData[tokenId].endTime = 0;\n\n            emit RentalEnded(tokenId, msg.sender);\n        }\n        _;\n    }\n\n    function getVehicleData(uint256 tokenId)\n    public\n    view\n    returns (\n        string memory make,\n        string memory model,\n        uint256 price,\n        uint256 startTime,\n        uint256 endTime\n    )\n    {\n        Vehicle storage vehicle = _vehicleData[tokenId];\n        return (vehicle.make, vehicle.model, vehicle.price, vehicle.startTime, vehicle.endTime);\n    }\n}\n",
  "sourcePath": "/Users/acsatlos/WebstormProjects/ElectricVehicleSharing/smart-contract/contracts/ElectricVehicle.sol",
  "compiler": {
    "name": "solc",
    "version": "0.8.19+commit.7dd6d404.Emscripten.clang"
  },
  "schemaVersion": "3.4.13",
  "updatedAt": "2023-05-11T10:35:08.304Z",
  "networkType": "ethereum",
  "devdoc": {
    "events": {
      "ApprovalForAll(address,address,bool)": {
        "details": "Emitted when `account` grants or revokes permission to `operator` to transfer their tokens, according to `approved`."
      },
      "TransferBatch(address,address,address,uint256[],uint256[])": {
        "details": "Equivalent to multiple {TransferSingle} events, where `operator`, `from` and `to` are the same for all transfers."
      },
      "TransferSingle(address,address,address,uint256,uint256)": {
        "details": "Emitted when `value` tokens of token type `id` are transferred from `from` to `to` by `operator`."
      },
      "URI(string,uint256)": {
        "details": "Emitted when the URI for token type `id` changes to `value`, if it is a non-programmatic URI. If an {URI} event was emitted for `id`, the standard https://eips.ethereum.org/EIPS/eip-1155#metadata-extensions[guarantees] that `value` will equal the value returned by {IERC1155MetadataURI-uri}."
      }
    },
    "kind": "dev",
    "methods": {
      "balanceOf(address,uint256)": {
        "details": "See {IERC1155-balanceOf}. Requirements: - `account` cannot be the zero address."
      },
      "balanceOfBatch(address[],uint256[])": {
        "details": "See {IERC1155-balanceOfBatch}. Requirements: - `accounts` and `ids` must have the same length."
      },
      "isApprovedForAll(address,address)": {
        "details": "See {IERC1155-isApprovedForAll}."
      },
      "owner()": {
        "details": "Returns the address of the current owner."
      },
      "renounceOwnership()": {
        "details": "Leaves the contract without owner. It will not be possible to call `onlyOwner` functions anymore. Can only be called by the current owner. NOTE: Renouncing ownership will leave the contract without an owner, thereby removing any functionality that is only available to the owner."
      },
      "safeBatchTransferFrom(address,address,uint256[],uint256[],bytes)": {
        "details": "See {IERC1155-safeBatchTransferFrom}."
      },
      "safeTransferFrom(address,address,uint256,uint256,bytes)": {
        "details": "See {IERC1155-safeTransferFrom}."
      },
      "setApprovalForAll(address,bool)": {
        "details": "See {IERC1155-setApprovalForAll}."
      },
      "supportsInterface(bytes4)": {
        "details": "See {IERC165-supportsInterface}."
      },
      "transferOwnership(address)": {
        "details": "Transfers ownership of the contract to a new account (`newOwner`). Can only be called by the current owner."
      },
      "uri(uint256)": {
        "details": "See {IERC1155MetadataURI-uri}. This implementation returns the same URI for *all* token types. It relies on the token type ID substitution mechanism https://eips.ethereum.org/EIPS/eip-1155#metadata[defined in the EIP]. Clients calling this function must replace the `\\{id\\}` substring with the actual token type ID."
      }
    },
    "version": 1
  },
  "userdoc": {
    "kind": "user",
    "methods": {},
    "version": 1
  }
}